:020000040800F2
:1000000070580024A5040008AF540008A35200084B
:10001000AD540008F3200008BD6500080000000092
:10002000000000000000000000000000E5030008E0
:10003000BD2100080000000041040008C95C000860
:10004000C3040008C3040008C3040008C304000874
:10005000C3040008C3040008C3040008C304000864
:10006000C3040008C3040008C3040008C304000854
:10007000C3040008C3040008C3040008C304000844
:10008000C3040008C3040008C3040008C304000834
:10009000C3040008C3040008C3040008C304000824
:1000A000C3040008855E0008C3040008C3040008F8
:1000B000C3040008C3040008C3040008C304000804
:1000C000C3040008C3040008C3040008C3040008F4
:1000D000C3040008C3040008C3040008B165000895
:1000E000C3040008C304000800000000C3040008A3
:1000F000C3040008C3040008C3040008C3040008C4
:10010000C3040008C3040008C3040008C3040008B3
:10011000C3040008C3040008C3040008C3040008A3
:10012000C3040008C3040008C3040008C304000893
:10013000C3040008C3040008C3040008C304000883
:1001400000000000000000000000000000000000AF
:10015000C3040008C3040008C3040008C304000863
:10016000C3040008C3040008C3040008C304000853
:10017000C3040008C3040008C30400080000000012
:10018000C3040008C3040008C3040008C304000833
:10019000C3040008C3040008C3040008C304000823
:1001A000C3040008C3040008C3040008C304000813
:1001B000C3040008C3040008C3040008C304000803
:1001C000C3040008C3040008C3040008C3040008F3
:1001D000C3040008C3040008C3040008C3040008E3
:1001E000C3040008C3040008C3040008C3040008D3
:1001F000C3040008C3040008C3040008C3040008C3
:10020000C3040008C3040008C3040008C3040008B2
:10021000C3040008C3040008C3040008C3040008A2
:10022000C3040008C3040008C30400080000000061
:10023000C3040008C304000800000000C304000851
:10024000C3040008C3040008C3040008C304000872
:10025000C3040008C3040008C3040008C304000862
:10026000C3040008C3040008C3040008C304000852
:10027000C3040008C3040008C30400080000000011
:10028000C3040008C3040008C30400080000000001
:1002900000000000C304000800F002F800F092F82B
:1002A0000AA090E8000C82448344AAF10107DA45D1
:1002B00001D100F087F8AFF2090EBAE80F0013F091
:1002C000010F18BFFB1A43F001031847B8A500003F
:1002D000D8A50000103A24BF78C878C1FAD85207D0
:1002E00024BF30C830C144BF04680C6070470000B0
:1002F0000023002400250026103A28BF78C1FBD82F
:10030000520728BF30C148BF0B6070476E2900F00C
:100310008784702900F0D185662909F09C836529BE
:1003200009F09983672909F09683612909F095837B
:1003300003681B0A28BF41F08001692900F07E8113
:10034000642900F07B81752900F078816F2900F025
:100350005E85782900F09D85E92900F0F984E4297B
:1003600000F0F684F52900F0F384EF2900F05B85B6
:10037000F82900F09C850368DB0928BF41F0800163
:10038000632901F0B381732901F0B881E32901F0F9
:10039000C381F32901F0C881002070471FB509F01F
:1003A00055FB01F017FA04000020002109F038FB8A
:1003B000401C60600020002109F01CFBE0601FBDB4
:1003C00010B510BD01F0D8F91146FFF7E7FF06F0B0
:1003D000F7F901F0B5FA03B4FFF7F2FF03BC01F03F
:1003E000B9FA00002C4B19680868B0E8F04F80F3A8
:1003F0000988BFF36F8F4FF0000080F311887047BA
:100400000000000008480068006880F308884FF08A
:10041000000080F3148862B661B6BFF34F8FBFF35C
:100420006F8F00DF00BF00BF08ED00E0DFF80C00B9
:10043000016841F470010160704700BF88ED00E081
:10044000EFF30980BFF36F8F134B1A681EF0100F84
:1004500008BF20ED108A20E9F04F106009B44FF07A
:10046000500080F31188BFF34F8FBFF36F8F08F0F8
:1004700081FB4FF0000080F3118809BC19680868FF
:10048000B0E8F04F1EF0100F08BFB0EC108A80F3F8
:100490000988BFF36F8F704720000024EFF30580B9
:1004A000704700000A4880470A4880470A480047CA
:1004B000FEE7FEE7FEE7FEE7FEE7FEE7FEE7FEE714
:1004C000FEE7FEE705480649064A074B704700006D
:1004D000F92400088D5D000899020008705200247C
:1004E00070580024705400247054002453EA020C05
:1004F00000F069802DE9F04B4FF00006002B1FBF84
:10050000B3FA83F503FA05F424FA05F65E4012BF48
:100510001643B2FA82F502FA05F4C5F120051EBFB2
:1005200022FA05FC44EA0C04203556EA044C4FEA52
:10053000144418BF641C4FF000084FF000099042AB
:1005400071EB030C39D3002919BFB1FA81F701FA15
:1005500007F6B0FA80F700FA07F6C7F120071EBFCA
:1005600020FA07FC46EA0C062037B6FBF4FCA7EBA2
:100570000507103F07F01F0BCBF120060CFA0BFB11
:100580002CFA06F644BFB3460026202FA4BF5E46D1
:100590004FF0000B5BEA060C08BF4FF0010B19EBA4
:1005A0000B09ABFB027C48EB0608C01B06FB02CC28
:1005B0000BFB03CC71EB0C01C1E70B460246414635
:1005C0004846BDE8F08B13B54FF000004FF0000136
:1005D000AFF30080BDE81C40704700007CB51D46AD
:1005E00016460C00009001D02044401E074B7B446F
:1005F0002A4669460190304600F02BFB05461CB1A7
:100600000020694600F038FB28467CBD91060000BA
:100610000FB41CB5084B06AA7B44694600900598A8
:1006200000F017FB04460020694600F025FB204639
:100630001CBC5DF814FB00005D0600002DE9F041D4
:100640000646002410687529314616A510D000F022
:1006500053FA002802DA404213A507E031688A07FE
:1006600001D512A502E0490704D511A5012401E036
:1006700000F04BFA00210A2206F1240709E0B0FB42
:10068000F2FCB0FBF2F302FB1C0030307854184649
:10069000491C0028F3D123462A463046BDE8F041E4
:1006A00000F065BA000000002D0000002B000000E3
:1006B000200000002DE9F05F894604464FF0000A53
:1006C000DFF874B1FB44C0F820A02046E1688847F9
:1006D000002874D0252806D0D4E901219047206A4B
:1006E000401C2062F1E700265F462046E16888470B
:1006F0002028054607DB312D05D2781910F8200C8B
:1007000008B10643F1E7B00701D526F00406C4F8A6
:100710001CA00027C4F818A02A2D09D0284605F0EF
:1007200077FF38B304EB8708303DC8F8185019E05C
:1007300059F8041B204604EB87029161E168884761
:10074000012F054618D1E069002820DA26F020069E
:100750001DE0D8F8180000EB800005EB40003038B1
:10076000C8F818002046E1688847054605F050FFA4
:100770000028EED1012F0AD02E2D08D12046E168A5
:1007800088477F1C0546022F46F02006C4DBA0697F
:10079000002803DA404246F00106A061F00701D0CC
:1007A00026F010066C2D0BD0682D09D04C2D39D0B9
:1007B0006A2D35D0742D35D07A2D33D016E038E03F
:1007C000E1682F4620468847B842054609D16C2F7C
:1007D00026D04FF48060E1680643204688470546EE
:1007E00004E06C2F1AD04FF4807006430DB3A5F1CE
:1007F0004100192802D8203546F400664A462946A9
:10080000204626604E46FFF781FD80B101280BD0BF
:10081000F61D26F0070000F1080956E74020E4E73E
:100820008020D8E70020D6E706F104094DE72846E6
:1008300052E7206ABDE8F09F0C9E000010B5431CF3
:1008400002E010F8011B71B18107FAD14FF00132BB
:1008500002C88C1A8C4314EAC211F9D0C01A0A06D5
:1008600003D0C01E10BDC01A10BD0A0401D0801EE6
:1008700010BD0902FCD0401E10BD40EA010370B556
:100880009B072ED14FF00136042A2AD308C810C97D
:100890009D1B9D43121F15EAC61517D0D8B2E1B2B1
:1008A000401A50EA056110D198B2A1B2401A50EA3C
:1008B00005410AD123F07F4024F07F41401A50EADD
:1008C000052102D1180EA0EB146070BDA342DBD04D
:1008D00018BA21BA884201D9012070BD4FF0FF300B
:1008E00070BD0AB9002070BD10F8013B11F8014B32
:1008F00063B1A3420AD1521E08D010F8013B11F88F
:10090000014B1BB1A34201D1521EEDD1181B70BD8A
:10091000032A40F2308010F0030C00F0158011F82B
:10092000013BBCF1020F624498BF11F801CB00F803
:10093000013B38BF11F8013BA2F1040298BF00F857
:1009400001CB38BF00F8013B11F0030300F0C08277
:10095000083AC0F0088051F8043B083A51F804CB3B
:10096000A0E80810F5E7121D5CBF51F8043B40F801
:10097000043BAFF30080D20724BF11F8013B11F80C
:1009800001CB48BF11F8012B24BF00F8013B00F850
:1009900001CB48BF00F8012B704702F0FF0343EA88
:1009A000032242EA024200F002B84FF0000204299A
:1009B000C0F0128010F0030C00F01B80CCF1040C8E
:1009C000BCF1020F18BF00F8012BA8BF20F8022BC2
:1009D000A1EB0C0100F00DB85FEAC17C24BF00F868
:1009E000012B00F8012B48BF00F8012B70474FF096
:1009F000000200B5134694469646203922BFA0E86F
:100A00000C50A0E80C50B1F12001BFF4F7AF09077A
:100A100028BFA0E80C5048BF0CC05DF804EB89006B
:100A200028BF40F8042B08BF704748BF20F8022BAE
:100A300011F0804F18BF00F8012B70474FF0013CB8
:100A400050F8042B51F8043B9A4215D1A2EB0C0349
:100A5000934313EACC130BD150F8042B51F8043B09
:100A60009A4209D1A2EB0C03934313EACC13E7D0CB
:100A70004FF00000704700BFD01A01BAB1FA81F1FF
:100A800001F0180122FA01F0CB40C1F12001DBB2E4
:100A9000C0B2C01A2CFA01F3D11A914311EAC31162
:100AA000E6D1704770477047704770B50446856956
:100AB0000068C10601D5302600E02026C00707D017
:100AC00070BDD4E9012130469047206A401C206265
:100AD0006D1EF6D570BD70B5044685690078C007F7
:100AE00007D170BDD4E9012120209047206A401C25
:100AF00020626D1EF6D570BD09684A0501D540B269
:100B00007047C905FCD500B2704709684A0501D590
:100B1000C0B27047C905FCD580B2704770B50C46AD
:100B20000546012A05D02878800600D5EA69002309
:100B300002E0012305E05B1C934202D2E05C002846
:100B4000F9D1A869E618C01AA861286A1844286271
:100B50002846FFF7AAFF04E0D5E9012114F8010BAC
:100B60009047B442F8D32846FFF7B5FF70BD2DE992
:100B7000F0470D4699469246044600F12408016864
:100B8000880604D5E06921F01001216000E0012011
:100B9000A84201DD471B00E00027A1697A1902EB9A
:100BA0000900081AA0612078C00602D42046FFF789
:100BB0007CFF002608E0D4E901211AF806009047DE
:100BC000206A401C761C20624E45F4DB2078C0066B
:100BD0000AD52046FFF769FF06E0D4E9012130205D
:100BE0009047206A401C2062381EA7F10107F4DC00
:100BF00007E0D4E9012118F805009047206A401C5D
:100C00002062281EA5F10105F3DC2046FFF763FFF3
:100C10002078000602D50220BDE8F0870120FBE71E
:100C200011680268006A530501D508700AE0D3050F
:100C300001D5088006E0130603D5C217C1E90002FA
:100C400000E008600120704701694A1C02610878D1
:100C5000704700B58FB0CDE90131002105910549FC
:100C60007944CDE9031011466846FFF723FD0FB024
:100C700000BD0000E5FFFFFF0A6802F8010B0A60F3
:100C80007047D1E900239A4202D2531C0B601070C6
:100C9000704700002DE9FF5F15468A460446DFF8DD
:100CA000AC80F8440027D8E900103E46CDE900109A
:100CB00010E03AF816106A4602A800F039FD411C0F
:100CC00007D02178890603D5E269391891420DD8F9
:100CD0000744761C2078800602D5E069B84205DD1D
:100CE000AE42E6DB3AF816000028E2D1A069C01B4C
:100CF000A0612046FFF7D9FED8E90010CDE9001029
:100D0000002017E03AF818106A4602A800F010FD1B
:100D1000B0F1FF3F81460BD000250DF1080B05E037
:100D2000D4E901211BF8050090476D1C4D45F7D310
:100D300008F10100B0428046E4DB206A38442062BA
:100D40002046FFF7C8FEBDE8FF9F00004298000064
:100D50002DE9F0418046D21D22F007020025D2E99C
:100D60000002F52915A614D0011E72F1000106DA61
:100D70000023D0EB030063EB020211A608E0D8F8D1
:100D800000108B0701D50FA602E0490701D50EA67A
:100D900001251146002408F1240704E000F0CAF8F8
:100DA00030323A55641C50EA0102F7D12B463246E4
:100DB00021464046BDE8F041FFF7D9BE00000000E3
:100DC0002D0000002B0000002000000030B40021A6
:100DD00000F1240408E002F00705D208303542EAA9
:100DE0004372DB086554491C52EA0305F3D10468D9
:100DF000002310A2250707D5A40600D421B1C46999
:100E000001230DA2641EC46130BCFFF7B0BE10B553
:100E1000044621461068FFF778FE02462046BDE8EA
:100E200010400023D2E7D21D22F00701D1E90023B0
:100E3000CCE700000000000030000000F0B40D46D8
:100E40000188090502D5214C7C4402E01F4C7C44FA
:100E50000E34002100F1240608E002F00F07120909
:100E6000E75D42EA03721B097754491C52EA030703
:100E7000F3D102780023120704D5702D06D009B1F2
:100E8000022311342246F0BCFFF771BE0123103457
:100E9000F8E770B504460D4621461068FFF735FEA9
:100EA000024629462046BDE870400023C6E7D21D11
:100EB00022F00703D3E90023C0E70368126843F078
:100EC000200303600823C3610023B7E7A496000052
:100ED00010B5203AC0F00B80B1E81850203AA0E8D5
:100EE0001850B1E81850A0E81850BFF4F5AF5FEA09
:100EF000027C24BFB1E81850A0E8185044BF18C9BC
:100F000018C0BDE810405FEA827C24BF51F8043B62
:100F100040F8043B08BF7047D20728BF31F8023BB6
:100F200048BF11F8012B28BF20F8023B48BF00F84A
:100F3000012B704730B5B0F10A024FEA900E71F103
:100F400000034EEA817EB0EB0E0061EB91014FEAA7
:100F5000101E4EEA017E10EB0E0041EB11114FEA1C
:100F6000102E4EEA016E10EB0E0041EB11214FEAFC
:100F7000104E4EEA014E10EB0E0041EB11414018AD
:100F800041F100014FEAD00040EA41704FEAD1013F
:100F900010EB80054FEA810444EA907444EB0104AD
:100FA0006D1944EB0404521BA3414FF0000348BFEA
:100FB0000A3200D530BD401C41F1000130BD704700
:100FC0002DE9FF4F0C461E464FF0FF378BB0D2E99C
:100FD0000001DDF860800A908A46C1F30A5505B920
:100FE0003D46002108464FF00000BAF1000F00F422
:100FF000400005DA00EB80004FF4400101EA5000A8
:101000004FEA9059B9F1010F00DDB9460A9850EA4C
:101010004A000ED044F61050A5F2FF3545432F1478
:10102000B8F1000F1ED07542291E1EDDC9F1000265
:101030001CE0B8F1010F4FF0000001D0302103E0B7
:10104000F24305E02154401CB042FBDB3046002255
:10105000002121540B99C1F80880C1E900200FB08C
:10106000BDE8F08FBD1B6D1CDEE74A4600DA694221
:1010700006A800F0F3FB06AB93E8070003AB83E898
:10108000070050460A9900F06CFC8DE80700A0F5B7
:1010900000501F3800900398002D0ADD42F21F0116
:1010A0004A460844002303A90390684600F0D5FE91
:1010B00009E0A0F500504A461F38002303A9039019
:1010C000684600F0DFFE8DE807000004000C03D046
:1010D0004FF0FF30410800E01046B8F1000F03D098
:1010E0000022009215461EE0751E05D4FFF722FF70
:1010F000303262556D1EF9D5B3460122084302D045
:1011000000227F1C04E02078302801D100227F1EBD
:10111000002A099784D01DE0112D07DAFFF70AFF96
:10112000303262556D1C50EA0102F5D1084302D0FD
:101130000098C8B10EE00021681E05E0235C625CE7
:1011400063542254401E491C8142F7DBAB46A81B66
:10115000401E0990002004F80B000B98099AC0F873
:101160000880C0E9002B7AE711264FF0000857E706
:101170002DE9F04F88460446D21D22F0070191B0B8
:10118000D1E90001CDE90A0105F019FA02460B98F0
:10119000C00F01D02D2007E02068810701D52B204A
:1011A00002E0202101EAC000032A099001D0072AA9
:1011B00005DB03464146204600F010FB0BE120789A
:1011C000800601D5E06900E00620B8F1650F814690
:1011D00006D0B8F1660F18D0B8F1670F70D131E0C2
:1011E0000020B9F1110F009001DB112301E009F19A
:1011F00001030AAA01A90CA8FFF7E2FEDDE90C70C1
:10120000002609F10105834647E001204B46009086
:101210004FF000470AAA01A90CA8FFF7D1FEDDE9AB
:101220000DB00C995D46002610B909F101000D18AA
:10123000B9EB050003D4C0F1FF3609F10105A5EBB8
:1012400009002BE0B9F1010F01DA4FF0010900208C
:10125000B9F1110F0090484601DD112300E003466B
:101260000AAA01A90CA8FFF7ABFEDDE90C704D46F8
:1012700000268346207800070AD4AB4500DA5D4695
:1012800001A8012D04DD411911F8011C302907D0F6
:101290004F4502DA17F1040F04DA012082460FE00D
:1012A0006D1EEEE7002F02DCED1B3E4403E0781CD0
:1012B000A84200DD7D1CB81B00F1010A4FF0004779
:1012C0002078000703D4AA4501DB4FF0FF3A002144
:1012D000B7F1004F0DF143088DF8431024D00220E0
:1012E0002B23002F01DA7F422D230A21021EA0F1B9
:1012F000010000DC5FB197FBF1FC97FBF1F201FB11
:101300001C7C17460CF1300C08F801CDEEE7A8F173
:10131000010003702188090501D5452100E0652100
:10132000A0F1010800F8011C09980FA9A1EB08071A
:10133000FF1D00B10120411901EBEA70A169384499
:10134000081A401EA0612078C00602D42046FFF78C
:10135000ACFB099828B1D4E901219047206A401CD0
:1013600020622078C00622D52046FFF79EFB1EE0B3
:10137000002E04DBB34502DD01A8805D00E03020D3
:10138000D4E901219047206A401C2062761CAAF112
:1013900001005FEA000A0AD100F01CFAC068016887
:1013A000405CD4E901219047206A401C2062281E3D
:1013B000A5F10105DCDC07E0D4E9012118F8010BF7
:1013C0009047206A401C2062381EA7F10107F3DC19
:1013D0002046FFF780FB032011B041E62DE9F04FD6
:1013E00004460D46D21D22F0070089B0D0E90097CF
:1013F0004846394605F0E3F80246F80F01D02D23A0
:1014000007E02068810701D52B2302E0202101EAB3
:10141000C0038DF820300BB1012000E00020032A2A
:10142000824601D0072A04DB2946204600F0D6F97F
:101430003FE12078800601D40D2500E0E569C7F37F
:101440000A560D2D49DA00214FEA175B08464FF086
:101450000000002F00F4400007DA00EB80004FF49A
:10146000400100EBD07001EA60008115012901DD27
:101470004FF0FF3100224FEA850CBCF1180F06D364
:101480001346ACF118004FF08052C24003E04FF415
:10149000801323FA0CF30CF10C0CBCF1200F04D3D5
:1014A000ACF1200C09FA0CF001E007FA0CF000296D
:1014B0004FF0004801DD18B90FE00ED140450CD3C4
:1014C00019EB02095F4121B9404502D19F4329EA46
:1014D0000209BBEB175F00D0761C2088000502D5FF
:1014E0007B48784402E07A487844193808AA3023C7
:1014F00002F80A30037C0AF10101002E0AF1020A07
:1015000053546A4602DC4FF0300101E04FF03101E4
:101510004FF001088DF8001002D0A6F2FF3603E06C
:1015200059EA470100D06B4E002D02DC21780907F3
:1015300004D54FF002082E218DF80110C446002179
:101540000BE0C7F303433F01C35C491C6D1E02F867
:101550000830052908F1010801DA002DF1DC00212D
:101560000CE000EB1973491C1B786D1E082902F86A
:1015700008304FEA091908F1010801DA002DF0DC02
:1015800021688B0602D516E0A8F10108E04505DDCB
:1015900002EB080313F8013C302BF5D0B8F1000F33
:1015A00009DD02EB080313F8013C2E2B03D10907D8
:1015B00001D4A8F10108002D05DD3E2102F8081034
:1015C0006D1E08F10108407C002E02F8080008F1A9
:1015D000010804DA2D20764202F8080002E02B20F0
:1015E00002F808000A214FF47A70864208F10108D7
:1015F0000BDB96FBF0F3303302F8083096FBF0F388
:1016000008F1010800FB136601E0642E0CDB642086
:1016100096FBF0F3303302F8083096FBF0F308F154
:10162000010800FB136601E00A2E06DB96FBF1F0D1
:10163000303002F8080008F1010896FBF1F001FBD8
:101640001060303002F80800A16908F1010808EBC9
:10165000050202EB0A00081AA0612078C00602D435
:101660002046FFF722FA216A08AE01EB0A00206249
:1016700004E0D4E9012116F8010B9047BAF1010A00
:10168000F7D22078C00602D52046FFF70EFA6E4644
:1016900009E016F8010B3E280FD0D4E9012190474C
:1016A000206A401C2062B8F10108F2D22046FFF700
:1016B00012FA09B00320BDE8F08F206A28442062A6
:1016C00003E0D4E90121302090476D1EEBD3F8E709
:1016D0004590000002FCFFFF10B5436913B1AFF362
:1016E000008001E0FFF71AFA012010BD127800F126
:1016F00024010A7000224A700122EDE711684FF0C0
:10170000FF32E9E710B5436913B1AFF3008001E0A0
:10171000FFF7C0FA012010BD128800F12401828475
:101720000022C2840122EDE711684FF0FF32E9E7A1
:1017300070B516460C46054600F044F8036893F869
:101740000101012806D0FF2C0FD8185D68B10120D7
:101750002C7070BDD3F807013246214603F20713FF
:1017600003442846BDE8704018474FF0FF3070BD75
:10177000004870470C5200247546FFF7F9FFAE464B
:1017800005006946534620F00700854618B020B58D
:10179000FEF798FEBDE820404FF000064FF000072E
:1017A0004FF000084FF0000B21F00701AC46ACE809
:1017B000C009ACE8C009ACE8C009ACE8C0098D4676
:1017C0007047000010B500F005F8001D10BD00BF07
:1017D00051820000004870472C5200242DE9F0414E
:1017E0001F46044603260168072A01F4006004DB53
:1017F00008B116A505E016A503E008B115A500E09F
:1018000015A521F010002060A069C01EA0610FB1D5
:10181000401EA0612046FFF748F94FB1D4E90121ED
:1018200038469047206A401C2062C01C206206E0B7
:10183000206AFAE7D4E9012115F8010B9047761EDA
:10184000F8D22046FFF747F9BDE8F0814E414E003F
:101850006E616E00494E4600696E66002DE9F047E4
:10186000814616468AB0354878440DC88DE80D008B
:1018700032487844801C03AC0DC884E80D0041F662
:101880009B300844372190FBF1F290FBF1F5A5F174
:10189000800501FB12041B3C02D56442012000E0DC
:1018A0000020DFF898A080460027FA44AAF1BE0A7B
:1018B0000EE0E0070AD03246684607EB47010123F5
:1018C0000AEB810100F0DEFA8DE8070064107F1C4E
:1018D000002CEED1194F7F44AE3F19E0E80715D038
:1018E00007EB04100DF1180A90E80E008AE80E00CC
:1018F000C068F04201D1981908903246012306A928
:1019000003A800F0BFFA03AB83E807006D10641C66
:10191000002DE3D14FF0010332466946B8F1000FC4
:1019200003A802D000F099FA01E000F0ABFAC9E98F
:101930000001C9F808200AB0BDE8F087508D00000A
:1019400010B50446AFF300802046BDE81040FEF716
:1019500042BD000001491820ABBEFEE72600020090
:1019600070475FEA400C08BF91F0000F4FEA8C23EC
:101970004FEAC12243EA51514FEA1C5018BF00F50B
:10198000F0404FEA300018BF41F000415FEA6C5C64
:1019900000F02980BCF1FF3F08BF40F08040704755
:1019A000130C06BF12044FF0100C4FF0000C130E76
:1019B00004BF12020CF1080C130F04BF12010CF14A
:1019C000040C930F04BF92000CF1020CD30F04BF60
:1019D00052000CF1010C11464FF00002A0F11F0063
:1019E000A0EB0C00704711F0004F08BF704731F0BA
:1019F00000413FF4D5AF0B0C06BF09044FF0100CAB
:101A00004FF0000C0B0E04BF09020CF1080C0B0F79
:101A100004BF09010CF1040C8B0F04BF89000CF109
:101A2000020CCB0F04BF49000CF1010CCCF12003D8
:101A3000A0EB0C0022FA03F302FA0CF241EA0301D4
:101A400000F10100704720F07F4C80EA030023F092
:101A50007F47ACEB070303F57C5300F0004003F134
:101A6000FF032DE980494FEA154B09B44FEA1443AF
:101A700025EA0B4E24EA03480FF2042606EB13274F
:101A800049083E785FEA320203FB0667C7F50007A4
:101A900007FB06F64FEA54374FEAD64606F1020630
:101AA00007FB066CCCF1005C4FEA1C472CEA074CA4
:101AB00007FB06F40CFB06F504EB15464FEA9616F9
:101AC00034BF00204FF000404FEAD13706FB07FC3F
:101AD0004FEA1C4C0CFB0BF7D21B03FB0CF761EB22
:101AE00007010CFB0EF7B0EB074072EB17420CFB43
:101AF00008F734BFA2EB0742B2EB074261EB174194
:101B00004FEA0C444FEA910706FB07FC4FEA1C4CD6
:101B10000CFB0BF7B0EBC74072EB573203FB0CF733
:101B200034BFA2EBC742B2EBC74261EB57310CFBAB
:101B30000EF7B0EBC70072EB57720CFB08F734BF1F
:101B4000A2EBC702B2EBC70261EB5771039F4FEAEA
:101B5000816141EA921104EBCC044FEAD1374FEA9C
:101B6000826206FB07FC42EA90124FEA80604FEA6D
:101B70001C4C0CFB0BF7D21B03FB0CF761EB0701B2
:101B80000CFB0EF7B0EB074072EB17420CFB08F7AB
:101B900034BFA2EB0742B2EB074261EB17414FEAB9
:101BA0008C554FEA910704EB9C2406FB07FC4FEA97
:101BB0001C4C0CFB0BF7B0EBC74072EB573203FB2E
:101BC0000CF734BFA2EBC742B2EBC74261EB57310F
:101BD0000CFB0EF7B0EBC70072EB57720CFB08F76B
:101BE00034BFA2EBC702B2EBC70261EB577115EB32
:101BF0004C254FEA816141EA92114FEA82624FEA35
:101C0000D13742EA901206FB07FC44F100044FEA88
:101C100080604FEA1C4C0CFB0BF7D21B03FB0CF74C
:101C200061EB07010CFB0EF7B0EB074072EB1742BC
:101C30000CFB08F734BFA2EB0742B2EB074261EBA3
:101C4000174115EB1C154FEA813141EA92414FEAE9
:101C5000823242EA90424FEA80304FEA0C7644F1F9
:101C6000000448EA03434EEA0B484FF0000EB2EB83
:101C7000080C71EB030724BF624639464EEB0E0E8B
:101C80004FF0000B0018524149414BEB0B0BB2EBEC
:101C9000080C71EB03077BF1000B24BF6246394649
:101CA0004EEB0E0E4FF0000B0018524149414BEB2A
:101CB0000B0BB2EB080C71EB03077BF1000B24BF9D
:101CC000624639464EEB0E0E51EA020718BF46F047
:101CD000010616EB0E7655F1000254F1000103D512
:101CE000BDE88901BDE80088BDE88901BDE800487C
:101CF000B619524141EB0101A3F101037047808005
:101D00007F7E7D7C7B7A7978777676757473727155
:101D100071706F6E6E6D6C6C6B6A6A69686867660D
:101D200066656464636362616160605F5F5E5E5D9F
:101D30005D5C5C5B5B5A5A59595858575756565513
:101D400055555454535352525251515050504F4F75
:101D50004F4E4E4D4D4D4C4C4C4B4B4B4A4A4A49C5
:101D60004949484848474747474646464545454408
:101D70004444444343434342424242414141002B95
:101D80009C4630D477002BD01CB54FEA370703B4FC
:101D90004FF010004FF01001BAF1000F06D0BCF167
:101DA000000FDCBF40F0080040F008014FF00000D9
:101DB0000FBCBDE810400BF1010BBBF1010F08BFD8
:101DC0005FEA170722BF12F1010211F101014FF082
:101DD000004143F1000300F0004043EA0000704777
:101DE000F9D35708D0E746EA064613F1400F4FEA09
:101DF00016461FDD13F1200FDFBF16430A460021F0
:101E000020335B42BED0C3F1200746EA064602FA01
:101E100007F74FEA164646EA0706C3F1200722FAFB
:101E200003F201FA07F721FA03F14FF0000342EA47
:101E30000702A7E746EA020646EA06464FEA1646C2
:101E400046EA0106BCBF46EA0646360C4FF00003E0
:101E50004FF000024FF0000194E72DE9804C9A46C4
:101E6000934670B491E8380007C831EA400C48BF87
:101E700034EA430C03D5FFF7E6FDFFF780FFF0BC23
:101E8000BDE8008C2DE9804C9A46934670B491E8E9
:101E9000380007C810F0804F08BF13F0804F03D1FF
:101EA00000F005F8FFF76BFFF0BCBDE8008C20F0F8
:101EB0007F4780EA030023F07F4C07EB0C03A3F578
:101EC0007C5300F00040A3F1FE0392F0000F00F0FD
:101ED000B38095F0000F00F077802DE901494FEABB
:101EE00011404FEA144621EA004800FB06FC24EAB0
:101EF000064708FB06F607FB08F800FB07F718EB98
:101F000006484CEB164C4FEA124B18EB07484FEAC9
:101F100015464CEB174022EA0B4E0BFB06FC25EA5C
:101F200006470EFB06F607FB0EFE0BFB07F71EEB44
:101F3000064E4CEB164C4FF000061EEB074E4CEBDA
:101F4000174B18EB0B0840F1000018EB0E0B58EB89
:101F5000000840F100008F1A4FF000013CBFC94358
:101F6000661B14BFB5EB040C00213CBFC943F61B34
:101F70004FEA17444EEA8E0E27EA04454FEA1C4703
:101F800004FB07622CEA074C05FB07F70CFB05F680
:101F900004FB0CFC16EB074642EB174216EB0C4613
:101FA00042EB1C421BEB060658EB0202414146EA9B
:101FB0009E0601D5BDE80189B619524141EB0101E8
:101FC000A3F10103BDE801894FEA14454FEA114727
:101FD00024EA054621EA074C05FB07F406FB07F750
:101FE0000CFB06F105FB0CFC11EB074144EB17441D
:101FF0004FEA124711EB0C4144EB1C4422EA074C18
:1020000005FB07F206FB07F70CFB06F605FB0CFCCD
:1020100016EB074642EB174216EB0C4642EB1C450B
:102020006A1854F1000148BF7047B619524141EB9C
:102030000101A3F10103704795F0000F37D04FEA7B
:1020400011424FEA144721EA024624EA074C02FBF8
:1020500007F106FB07F70CFB06F402FB0CFC14EB84
:10206000074441EB17414FEA154714EB0C4441EB91
:102070001C4125EA074C02FB07F506FB07F70CFBA2
:1020800006F602FB0CFC16EB074645EB174516EB74
:102090000C4645EB1C42121951F1000148BF704734
:1020A000B619524141EB0101A3F1010370474FEA18
:1020B00014454FEA114724EA054621EA074C05FB7F
:1020C00007F106FB07F70CFB06F24FF0000605FBD5
:1020D0000CFC12EB074241EB174112EB0C4251EBA7
:1020E0001C4148BF7047921841EB0101A3F1010365
:1020F0007047FEE7054901201CB500230202CDE927
:102100000001064802A107F02DF91CBDA80000241B
:1021100044454255475F5461736B00004D210008F0
:10212000054902201CB50023C201CDE90001064883
:1021300002A107F017F91CBDA40000244F4C454430
:102140005F5461736B000000D1570008044C2021DC
:10215000204600F04DFFC82004F088FBF7E70000A0
:10216000001002584FF47A71484300F001B80000A3
:10217000084B064A06491B68B3FBF2F24B68424320
:102180004868C01A9042FBD37047000040420F00DD
:10219000001000E018000024064907480B680022E0
:1021A00043F080730B604260016841F001010160FF
:1021B00070470000FCED00E0001000E0704770B5D3
:1021C000A2B0064600244FF4C36001258DF80F50DD
:1021D00002238DF81D4069038DF80E5009948DF887
:1021E0001F400D9020208DF804508DF8325042028F
:1021F0008DF8605006914FF040518DF838400294B0
:102200008DF861408DF81C408DF828408DF86240B3
:102210008DF80C400B948DF81E500F948DF81150D2
:1022200012948DF840408DF831408DF8124014948E
:102230008DF856401790304616938DF82050059231
:102240008DF854408DF830408DF81050009169465B
:102250008DF80D408DF8554011948DF84C5000F0DC
:1022600075F81B9568058DF871404FF406718DF86F
:10227000685019948DF880408DF870401F908DF84B
:1022800078401D9030468DF88140219119A900F0C9
:1022900003F822B070BD0000F0B5026847F6020EE8
:1022A000274E4DF2010702F58052264DD1F800C0AD
:1022B0001368254C23EA0E0343EA0C0313600B79E1
:1022C000026891F80CE002F58052D1F808C01B03B7
:1022D00043EACE3343EA0C03D2F804C02CEA070CDD
:1022E0004CEA030CC2F804C002684F7B02F580522E
:1022F0000B6A43EA0747D2F8003133403B43C2F848
:10230000003102680B7D02F5805291F81DC00F6903
:10231000D2F804611B0143EA0C332E403B431E43B9
:10232000C2F8046100680B7F00F580508A69D0F81C
:10233000081142EAC37221401143C0F80811F0BDF0
:1023400000C0FEFFEFEFC0FFFFFFC07FF0B50B79CD
:102350000C7B0F688A68DB064D7B43EAC4533A4323
:102360008E7B1A43CF7B91F810C042EA855242EA35
:102370004652BCF1000F42EA07537CD000224C7C4D
:10238000002C43EAC24278D000238E7C0D7F42EAC3
:1023900043428F7FD1E9053442EA06424E7F1A4319
:1023A000224342EA0532002F42EAC62466D00022C8
:1023B000CD7F91F8203044EA8222002B42EA452268
:1023C0007ED0002504684B6A42EA052291F8287005
:1023D000464D1A43CE6A236842EA071232432B4025
:1023E0001343236091F83C2091F8383091F8305035
:1023F00091F83140520642EA036291F8326042EAB3
:10240000854242EA4444BEB300220368384E4F6B13
:1024100044EA02425C683A4340F20F1534401443E8
:102420005C60036891F840604C6CDA6844EA06240A
:10243000AA432243DA6091F854300A6D91F84C4077
:1024400042EA4302ECB300240368B1F848504FF667
:102450000D76E7011C6F47EA05452A4334401443D3
:102460001C67026891F8563091F8555052F8904F19
:1024700043EA450303E02BE032E02BE02CE024F0BC
:1024800003041C43146002688C6DD2F8003D23F0F5
:1024900072032343C2F8003D91F86020CC6D1AB35B
:1024A0005FF00003026891F8615091F8621044EA0D
:1024B0008310D2F8303D2C0144EAC101084301E009
:1024C0000CE00FE023F07B010143C2F8301DF0BDAA
:1024D000012254E7012358E7012269E7012571E74A
:1024E000012292E70124AFE70123DBE783800400A8
:1024F0000080F8C072B6FEE7054805490839026851
:1025000042F00202026008688004FCD570470000B7
:102510000C4802582DE9F84F044600F07DFD00906C
:102520003CB194F83500022806D080216165002076
:10253000E4E00120BDE8F88FC74DC74EC649183505
:1025400020683036DFF81483DFF814938842DFF810
:1025500014A3DFF814B328D0A84226D0B04224D068
:10256000404522D0484520D050451ED058451CD06B
:10257000BD4A1832904218D0BC4A904215D0BB4A8E
:102580001832904211D0B94A303290420DD0B74A39
:102590004832904209D0B54A6032904205D0B34AE1
:1025A0007832904201D0B14A9032026822F00102A2
:1025B0000260206888422ED0A8422CD0B0422AD097
:1025C000404528D0484526D0504524D0584522D0F3
:1025D000A54A183290421ED0A44A90421BD0A34A6A
:1025E0001832904217D0A14A3032904213D09F4AFD
:1025F000483290420FD09D4A603290420BD09B4AA5
:102600007832904207D0994A9032904203D0974A4C
:10261000A832904209D1026822F01E0202602068AE
:10262000426922F08002426103E0026822F00E0259
:1026300002602768884938468F424DD0A8424BD067
:10264000B04249D0404547D0484545D0504543D099
:10265000584541D08449183188423DD08349884249
:102660003AD082491831884236D080493031884288
:1026700032D07E49483188422ED07C496031884230
:102680002AD07A497831884226D0784990318842D8
:1026900022D07649A83188421ED0754988421BD085
:1026A00073491431884217D071492831884213D0B8
:1026B0006F493C3188420FD06D49503188420BD070
:1026C0006B496431884207D069497831884203D028
:1026D00067498C318F4214D1206E016821F48071DA
:1026E00001600EE000F098FC0099401A052808D916
:1026F000202262650321002084F8351084F834001C
:1027000017E73868C007EDD1534A0121206890428D
:102710002ED0A8422CD0B0422AD0404528D04845DF
:1027200026D0504524D0584522D04F4B18339842DC
:102730001ED04E4B98421BD04C4B1833984217D0AA
:102740004A4B3033984213D0484B483398420FD00D
:10275000464B603398420BD0444B7833984207D0B5
:10276000424B9033984203D0404BA833984208D153
:1027700094F85C703F23A06D07F01F07BB40836097
:1027800007E094F85C30A06D03F01F0301FA03F337
:102790004360206890424DD0A8424BD0B04249D00F
:1027A000404547D0484545D0504543D0584541D095
:1027B0002D4A183290423DD02C4A90423AD02B4AB2
:1027C0001832904236D0294A3032904232D0274ACD
:1027D000483290422ED0254A603290422AD0234A75
:1027E0007832904226D0214A9032904222D01F4A1D
:1027F000A83290421ED01E4A90421BD01C4A14326E
:10280000904217D01A4A2832904213D0184A3C32CC
:1028100090420FD0164A503290420BD0144A643284
:10282000904207D0124A7832904203D0104A8C323C
:1028300090420BD1D4E919024260E06E30B10268D7
:1028400022F480720260D4E91C024260002084F805
:10285000351084F834006DE6100002405800024044
:102860007000024088000240A000024010040240B4
:10287000085402582DE9F05F28B190F8351002296C
:1028800004D0802141650120BDE8F09F764A764B57
:10289000DFF8D4C1183201683033744CDFF8D0B19E
:1028A0006145744D744E754FDFF8D4E1DFF8D4A163
:1028B000DFF8D49131D091422FD099422DD0A1424E
:1028C0002BD0594529D0A94227D0B14225D0B942B1
:1028D00023D0DFF8AC81A8F1780841451DD0DFF89E
:1028E000A081A8F16008414517D0DFF89481A8F1D4
:1028F0004808414511D0DFF88881A8F130084145EA
:102900000BD0DFF87C81A8F11808414505D071454E
:1029100003D0514501D049452AD14FF0040880F831
:10292000358061451FD091421DD099421BD0A142F4
:1029300019D0594517D0A94215D0B14213D0B94288
:1029400011D04F48783881420DD04D4860388142CF
:1029500009D04B484838814205D049483038814237
:1029600001D047481838086820F00100086078E076
:10297000D1F8008028F00108C1F800800168D1F882
:10298000008028F00E08C1F800800168614546D03B
:10299000914244D0994242D0A14240D059453ED0C4
:1029A000A9423CD0B1423AD0B94238D0344A783A00
:1029B000914234D0324A603A914230D0304A483A5B
:1029C00091422CD02E4A303A914228D02C4A183AC3
:1029D000914224D0714522D0514520D049451ED086
:1029E0002A4A91421BD0294A1432914217D0274AD1
:1029F0002832914213D0254A3C3291420FD0234ACB
:102A0000503291420BD0214A6432914207D01F4A82
:102A10007832914203D01D4A8C32914218D1026E15
:102A20000121136823F48073136090F85C30826D89
:102A300003F01F0399405160D0E919124A60C16E3A
:102A400031B10A6822F480720A60D0E91C124A602F
:102A50000122016D002380F8352080F8343001B167
:102A60008847002010E70000100002405800024094
:102A70007000024088000240A0000240B8000240FE
:102A800088040240A0040240B804024008540258DE
:102A9000F8B5040003D0D4F8840010B107E0012099
:102AA000F8BD2020C4F88400204600F0D7F866481E
:102AB000016841F002010160006800F0020000902E
:102AC000207A08B14FF4000001F01AFF5F49206836
:102AD000096800F58050016841F00101016000F0D3
:102AE0009BFAE02605464FF4FA7706E000F094FAE8
:102AF000401BB84201D9042023E0206800F5805033
:102B00000068C007F2D1204600F024F901F054FB20
:102B10004F4A2168B0FBF2F0401EC1F8DC002046AD
:102B2000FFF74DFB206800F58050D0F8001121F42C
:102B3000E01141F40021C0F800116169880705D057
:102B40000120C4F88800C4F88460A8E7206847F62C
:102B5000FE7300F58050D0F808219A4342EA410103
:102B6000C0F8081100210846E26800EB400504EBBC
:102B7000800302EBC502116051609160D160401C7E
:102B800004289A61F0D3A1620323206800F58050E5
:102B9000C0F82C312068E26800F58050C0F814219C
:102BA0002068E26800F58050C0F820215FF0000244
:102BB000206902EB420604EB820500EBC6000160CF
:102BC00041608160C160521C0161042A4161A864B6
:102BD000EED3E1652166A166E166A165206800F596
:102BE0008050C0F830312068226900F58050C0F86C
:102BF0001C212268206902F580524830C2F8280161
:102C00001025D4E90060134A134B8088C6F80003EE
:102C1000D4E900600778D0F8010047EA0020C6F840
:102C200004032068D0F80C671643C0F80C672068CE
:102C3000D0F810271A43C0F81027C4F88810C4F839
:102C400084500020F8BD0000F444025804040058E9
:102C500040420F006000020C00C0200C70B586B02E
:102C6000044614216846FDF7C2FE344920688842B4
:102C700062D13348016841F400410160016801F408
:102C800000410591016841F480310160016801F45F
:102C900080310591016841F400310160006800F461
:102CA0000030059026480830016841F004010160B9
:102CB000016801F004010591016841F00101016022
:102CC000016801F001010591016841F00201016014
:102CD000016801F002010591016841F040010160C5
:102CE000006802240025694600F04000059032206B
:102CF0000B268DE831001348CDE9034600F05EF85D
:102D0000862069468DE831000F48CDE9034600F082
:102D100055F84FF4405069468DE831000B48CDE935
:102D2000034600F04BF8A00269468DE831000848E0
:102D3000CDE9034600F042F806B070BD00800240C5
:102D4000D8440258000802580000025800040258F3
:102D50000018025870B505460068D0F8000220F44B
:102D6000706401F029FA1049884202D244F40074D8
:102D700016E00E49884202D244F4407410E00C4937
:102D800088420DD30B49884202D244F4807407E094
:102D90000949884202D244F4806401E044F4A0640A
:102DA0002868C0F8004270BDC00E16020087930369
:102DB00000E1F50580D1F00880B2E60E2DE9F84F6C
:102DC00003247F4D00234FF001094FF0B04B4FF02B
:102DD0000F0AEDE009FA03F632407AD00F7907F0D6
:102DE0000307012F01D0022F19D187684FEA430E44
:102DF000D1F80CC004FA0EF827EA08070CFA0EFC0A
:102E00004CEA070CC0F808C0D0F804C00F792CEACF
:102E1000060CC7F300179F4047EA0C0747600E797E
:102E2000F643B60702D18E68012E0BD0C6684FEA72
:102E300043088F6804FA08FC26EA0C0607FA08F72C
:102E40003743C7600E7906F00306022E12D1DE0862
:102E50000F694FEA437C00EB8606B646366A4FEAB6
:102E6000DC6C0AFA0CF807FA0CF726EA0806374376
:102E7000CEF820700F7906684FEA430807F0030781
:102E800004FA08FC07FA08F726EA0C06374307603D
:102E90004E6816F4403F1CD04A4E376847F0020790
:102EA000376036689F0706F00206009623F0030697
:102EB00006F1B046B6463F0FD6F80864DFF8088141
:102EC0000AFA07FC404526EA0C0603D14FF0000C35
:102ED00041E06CE0DFF8F4C0604502D14FF0010C36
:102EE00039E0DFF8ECC0604502D14FF0020C32E06F
:102EF000DFF8E0C0604502D14FF0030C2BE0DFF8B3
:102F0000D8C0604502D14FF0040C24E0DFF8CCC0FB
:102F1000604502D14FF0050C1DE0DFF8C4C06045EC
:102F200002D14FF0060C16E0DFF8B8C0604502D1C0
:102F30004FF0070C0FE0DFF8B0C0604502D14FF052
:102F4000080C08E0DFF8A4C0604502D14FF0090C7E
:102F500001E04FF00A0C0CFA07FC4CEA060CCEF824
:102F600008C44F68DBF80060FF0226EA020600D5BD
:102F700016435F46CBF80060D1F804C0DBF804606C
:102F80005FEA8C2C26EA020600D516437E606E6846
:102F90004F6826EA0206BF0300D516436E602E680E
:102FA0004F6826EA0206FF0300D516432E605B1C1D
:102FB0000A6832FA03F67FF40DAFBDE8F88F00001F
:102FC00080000058F44402580000025800040258DF
:102FD00000080258000C0258001002580014025851
:102FE00000180258001C0258002002580024025801
:102FF000426921EA02030A4043EA024181617047C3
:103000000AB1816170470904FBE7000001480068CC
:10301000000C70470010005C014880687047000099
:103020000C000024024881680278114481607047D6
:103030000C000024032010B500F0FAF801F002F9AA
:103040000F4A104914681368C4F3032203F00F03F6
:103050008A5CC95C02F01F0201F01F01D0400A4ADD
:1030600020FA01F11160094908600F2000F010F802
:1030700008B1012010BD00F09BF8002010BD000039
:1030800018440258AC9A00081C00002418000024C0
:1030900010B5102804468AB02AD200220146192011
:1030A00000F0A6F8192000F095F8154804601548BE
:1030B000016841F001010160006808A900F0010009
:1030C0000990684601F04AF801F0AAF80E4940005C
:1030D00000220E4CB0FBF1F10D4840F2E7330460E2
:1030E000C0E90332491EC0E9011201F016FC10B11B
:1030F00001200AB010BD064801F042FCF9E70000CB
:1031000010000024F044025840420F00000001402B
:103110004C020024154BF0B5083B427813491A6065
:103120000B680A1F23F001030B6043681360057BE3
:10313000C67A827A437B2D07847B45EA0665C77B86
:1031400090F809C0067A90F800E045EAC24040EAEB
:10315000834040EA444040EA074040EA0C2040EA0D
:10316000460040EA0E000860F0BD0000A0ED00E05F
:10317000BFF35F8F044800210368034A23F48033C0
:10318000036070321160704724ED00E0074A40F0A0
:103190000100064970321060086840F48030086011
:1031A000BFF34F8FBFF36F8F7047000024ED00E037
:1031B000074882B0016841F0020101600068002206
:1031C0000F2100F002000090901E02B000F010B835
:1031D000F4440258002809DB410900F01F0289006D
:1031E000012001F1E0219040C1F80001704700008A
:1031F0000E4BF0B41B680D46C3F30223C3F1070660
:10320000042E00D90426191D072901D2002300E04D
:10321000DB1E012404FA06F19C40491E2940641E6D
:10322000994014402143F0BC03F0E1B90CED00E0FB
:10323000064900F0070210B54FF6FF040868044B7A
:10324000204040EA02201843086010BD0CED00E069
:103250000000FA05134970B50A68D243520705D534
:10326000096801F00701814213D118E00A6822F0D1
:10327000070202430A60FFF7CFFE0A4D4FF47A7649
:103280000446083D07E000BFFFF7C6FE001BB04242
:1032900001D9012070BD2868C0438004F4D4002007
:1032A00070BD00000C48025810B500F085FF0549BC
:1032B0000968054AC1F30211515C01F01F01C840C1
:1032C00010BD000020440258AC9A0008494930B5AE
:1032D000484C0B1D0A68143409681D68246802F004
:1032E0000303C5F30012C1F30531C4F3CC04002974
:1032F00014FB02F200EE102AF8EE400A75D03F4AA5
:103300009FED3D1AB7EE000A6BB1DFED3D1A012BC0
:1033100001D0022B64D002EE101A1168F8EE422A96
:1033200081EEA22A21E0334C283C23689B0612D56B
:10333000344B246801EE901A1168C4F3C104F8EE0E
:10334000612AE34001EE903AC1F30801F8EE611AF8
:1033500081EEA22A0BE001EE901ADFED2B2A00BFCE
:10336000F8EE611A116882EEA12AC1F3080101EE9C
:10337000901A1168F8EE611A40EE811A71EE800A17
:1033800062EE200AC1F3462101EE101AB8EE411A8E
:1033900031EE001AC0EE811ABCEEE11A80ED001A7F
:1033A0001168C1F3064101EE101AB8EE411A31EE70
:1033B000001AC0EE811ABCEEE11A80ED011A116804
:1033C000C1F3066101EE101AB8EE411A31EE000A9F
:1033D00080EE801ABCEEC10A80ED020A30BD04E026
:1033E00001EE901ADFED092ABAE700210160416081
:1033F0008160F3E72844025800000039384402583D
:103400000024744A0090D0030024744C20BCBE4BAE
:10341000494930B5484C0B1D0A681C3409681D68C1
:10342000246802F00303C5F30022C1F30551C4F37D
:10343000CC04002914FB02F200EE102AF8EE400A38
:1034400075D03F4A9FED3D1AB7EE000A6BB1DFED34
:103450003D1A012B01D0022B64D002EE101A116824
:10346000F8EE422A81EEA22A21E0334C283C236860
:103470009B0612D5344B246801EE901A1168C4F3F0
:10348000C104F8EE612AE34001EE903AC1F308016D
:10349000F8EE611A81EEA22A0BE001EE901ADFED40
:1034A0002B2A00BFF8EE611A116882EEA12AC1F33F
:1034B000080101EE901A1168F8EE611A40EE811AC7
:1034C00071EE800A62EE200AC1F3462101EE101A65
:1034D000B8EE411A31EE001AC0EE811ABCEEE11AC4
:1034E00080ED001A1168C1F3064101EE101AB8EE22
:1034F000411A31EE001AC0EE811ABCEEE11A80EDDD
:10350000011A1168C1F3066101EE101AB8EE411AF2
:1035100031EE000A80EE801ABCEEC10A80ED020A8C
:1035200030BD04E001EE901ADFED092ABAE7002170
:10353000016041608160F3E72844025800000039CF
:10354000404402580024744A0090D0030024744C74
:1035500020BCBE4B2DE9FE4F0546DFF8E48350F852
:10356000081B0024F64FC943019005F128002646A8
:1035700008F12408009008011DD4A86E50B1B0F5E0
:10358000801F0CD0B0F5001F0ED0B0F5401F1ED02C
:1035900001240FE0386840F40030386017E00198EB
:1035A000022102F0B5F903E00098022102F040FA8E
:1035B00004000CD026462888C043C00523D4A86D3B
:1035C00005281ED2DFE800F00C11161B1B00AA6EA6
:1035D000D8F8001021F440111143C8F80010EAE7B0
:1035E000386840F40030386009E00198002102F0AA
:1035F0008FF903E00098002102F01AFA044674B132
:1036000000E0012426462888C043800528D4E86DC0
:1036100080281ED00CDC90B140280ED114E0AA6D99
:10362000D8F8001021F007011143C8F80010EAE7AC
:10363000C02813D0B0F5807F10D001240FE0386887
:1036400040F40030386009E00198002102F060F990
:1036500003E00098002102F0EBF904469CB12646F5
:103660002888DFF8DC92C04309F12C0940052CD4EE
:10367000D5F8A800B0F5800F20D00DDCA0B1B0F5D2
:10368000001F0FD115E0EA6DD8F8001021F4E071A9
:103690001143C8F80010E3E7B0F5C00F13D0B0F540
:1036A000000F10D001240FE0386840F4003038607B
:1036B00009E00198002102F02BF903E000980021B5
:1036C00002F0B6F904467CB126462888C0430005BE
:1036D0002DD4D5F8AC00B0F1007F21D00EDCA8B11C
:1036E000B0F1807F10D116E0D5F8A820D9F80010ED
:1036F00021F460011143C9F80010E6E7B0F1407F02
:1037000013D0B0F1806F10D001240FE0386840F47E
:103710000030386009E00198002102F0F9F803E078
:103720000098002102F084F9044674B12646286806
:10373000C04380011FD4E86CD8B110280FD02028D6
:1037400012D0302815D0012414E0D5F8AC20D9F8D7
:10375000001021F0E0611143C9F80010E7E7386874
:1037600040F40030386004E00198022102F0D0F803
:10377000044674B126462888C043C0042BD4286E62
:10378000B0F5005F20D00DDCA0B1B0F5805F0FD1A7
:1037900015E06B48EA6C2030016821F030011143DC
:1037A0000160E8E7B0F5405F13D0B0F5804F10D06E
:1037B00001240FE0386840F40030386009E00198D7
:1037C000002102F0A5F803E00098002102F030F992
:1037D00004468CB126462888C043800429D4686EEC
:1037E000B0F5403F23D010DC08B3B0F5803F14D0D3
:1037F000B0F5003F0FD115E02A6ED8F8001021F483
:10380000E0411143C8F80010E5E7B0F5802F0ED075
:10381000B0F5A02F0BD001240AE00198012102F09D
:1038200077F803E00098012102F002F9044694B110
:1038300026462888C04340042AD4D5F8B000B0F109
:10384000405F23D010DC08B3B0F1805F14D0B0F13A
:10385000005F0FD115E06A6ED8F8001021F4E02166
:103860001143C8F80010E4E7B0F1804F0ED0B0F17A
:10387000A04F0BD001240AE00198012102F048F882
:1038800003E00098012102F0D3F8044674B1264603
:103890002888C04300041FD4286FD8B1B0F1805FDE
:1038A0000ED0B0F1005F10D0012414E0D5F8B020A4
:1038B000D9F8001021F0E0411143C9F80010E7E702
:1038C000386840F40030386004E00198012102F0CB
:1038D0001FF8044674B126462868C043C0011ED4B0
:1038E000A86CD0B101280ED0022811D0032814D022
:1038F000012413E02A6FD8F8001021F04051114341
:10390000C8F80010E8E7386840F40030386004E098
:103910000198022101F0FCFF0446ACB1264628685C
:10392000DFF81CB0C043ABF11C0B400252D4054879
:10393000016841F480710160FFF76EFB824611E07F
:103940002C44025800480258FA48AA6C016821F039
:10395000030111430160E2E7FFF75EFBA0EB0A0001
:10396000642835D8F4480068C005F5D58CBBDFF86D
:10397000C4A3B5F8B4100AF1240ADAF8000001F47F
:10398000407100F44070884211D0DAF80010DAF883
:10399000002021F4407142F48032CAF80020DAF8A5
:1039A000002022F48032CAF80020CAF80010D5F8AE
:1039B000B400B0F5807F1AD1FFF72EFB029012E021
:1039C000FFF72AFB0299411A41F2883081420AD955
:1039D000032426462878DFF85CA3C0430AF1080ACE
:1039E000C00721D03CE0DAF800008007E8D5D5F820
:1039F000B410C1F30120032858460DD0016821F40A
:103A00007C510160B5F8B420DAF80010C2F30B0263
:103A10001143CAF80010DDE7C84A036802EA111230
:103A200023F47C511143ECE7E86F182816D005DC2D
:103A3000A0B1082808D0102804D10AE020280DD011
:103A400028280BD001240AE00198012101F060FF31
:103A500003E00098012101F0EBFF044664B1264623
:103A60002878C04380071ED4A86F062819D2DFE843
:103A700000F0160C11161616EA6FDAF8001021F095
:103A800038011143CAF80010EAE70198012101F05A
:103A90003FFF03E00098012101F0CAFF04467CB11A
:103AA00000E0012426462878C04340071FD4D5F8FB
:103AB0009400062819D2DFE800F0160C111616162D
:103AC000AA6FDAF8001021F007011143CAF80010BC
:103AD000E9E70198012101F01BFF03E000980121B3
:103AE00001F0A6FF0446A4B100E001242646287890
:103AF000C04380062BD4D5F89000B0F1405F24D0AD
:103B000011DC10B3B0F1805F15D0B0F1005F10D1BF
:103B100016E0D5F89420D9F8001021F007011143E0
:103B2000C9F80010E3E7B0F1804F0ED0B0F1A04F1C
:103B30000BD001240AE00198002101F0E9FE03E026
:103B40000098022101F074FF044694B126462878BB
:103B5000C04340062BD4D5F89C00B0F5406F24D06C
:103B600011DC10B3B0F5806F15D0B0F5006F10D137
:103B700016E0D5F89020DAF8001021F0E04111436A
:103B8000CAF80010E3E7B0F5805F0ED0B0F5A05F93
:103B90000BD001240AE00198002101F0B9FE03E0F6
:103BA0000098022101F044FF044694B1264628788B
:103BB000C04300062BD4D5F8A000B0F5C04F24D0E8
:103BC00011DC10B3B0F5005F15D0B0F5804F10D107
:103BD00016E0D5F89C20D9F8001021F4E0511143EB
:103BE000C9F80010E3E7B0F5004F0ED0B0F5204F54
:103BF0000BD001240AE00198002101F089FE03E0C6
:103C00000098022101F014FF044654B1264628789A
:103C1000C04300071ED4D5F88400B0F5805F0AD0F9
:103C20000FE0D5F8A020D9F8001021F4604111432D
:103C3000C9F80010EBE70098022101F0F9FE00B18D
:103C40000126D5F88420DAF8001021F44051114300
:103C5000CAF800102878C043C00613D4D5F89800DD
:103C6000B0F5807F05D10098022101F0E1FE00B19E
:103C70000126D5F89820D9F8001021F4407111439D
:103C8000C9F800102868C043000316D4D5F8A40072
:103C900038B1B0F5803F09D0B0F5003F0BD001241A
:103CA0000AE00198002101F033FE03E000980221B0
:103CB00001F0BEFE04468CB126462868C04340038E
:103CC00022D4D5F88800B0F5801F11D0B0F5001FC0
:103CD00013D0B0F5401F15D0012414E0D5F8A4206E
:103CE000D9F8001021F440311143C9F80010E4E77D
:103CF000386840F40030386004E00098012101F099
:103D000097FE04465CB126462868C043C00323D40E
:103D1000286DA8B1B0F5803F17D001241BE0D5F87D
:103D20008820DAF8001021F440111143CAF800107D
:103D3000EAE700004C44025800480258CFFFFF0059
:103D4000386840F40030386004E00198022101F046
:103D5000DFFD0446E4B126462868C043800005D450
:103D60000098022101F064FE00B101262868C043DA
:103D700080031BD4D5F88000B0B1B0F5807F0FD0A0
:103D8000B0F5007F10D0B0F5407F0DD001240CE0DD
:103D90005A482A6D016821F4803111430160DBE744
:103DA000386840F400303860ECB326462868C043D9
:103DB000C00207D46A6FD8F8001021F00041114307
:103DC000C8F800102868C043C00008D4D5F8B8204F
:103DD000DBF8001021F480411143CBF80010286873
:103DE000C043800207D4EA6ED8F8001021F0807139
:103DF0001143C8F800102868C04340000CD4DBF819
:103E0000001021F40041CBF80010DBF80010D5F8C9
:103E1000BC201143CBF800102868C04308D43748B1
:103E20006A6D016800E018E021F040511143016023
:103E30002868C043000208D4D5F88C20DAF80010B6
:103E400021F440011143CAF8001028790024C0432E
:103E500000F0010020430AD00FE0D5F88020DAF806
:103E6000001021F440711143CAF800109EE7019838
:103E7000002101F04DFD00B106462879C04300F055
:103E80000200204305D10198012101F041FD00B15C
:103E900006462879C04300F00400204305D101986C
:103EA000022101F035FD00B106462879C04300F03B
:103EB0000800204305D10098002101F0B9FD00B1B0
:103EC00006462879C04300F01000204305D1009831
:103ED000012101F0ADFD00B106462879C04300F094
:103EE0002000044304D10098022101F0A1FD00B993
:103EF00016B10120BDE8FE8F0020FBE74C440258BC
:103F00002DE9F05F04000F467ED0DFF83882D8F844
:103F1000000000F00F00B8420CD2D8F8001021F0D9
:103F20000F013943C8F80010D8F8000000F00F0066
:103F3000B84269D12078844D40070AD520692968A4
:103F400001F07001884204D9296821F07001014311
:103F5000296020787C4E361D00070AD560693168DB
:103F600001F07001884204D9316821F070010143E9
:103F700031602078C0060AD5A069316801F4E0619B
:103F8000884204D9316821F4E0610143316020782E
:103F9000DFF8B4B180060BF1080B0CD5E169584687
:103FA000DBF8002002F07002914204D9026822F08E
:103FB00070020A430260207880070AD5E068296809
:103FC00001F00F01884204D9296821F00F01014353
:103FD00029602078C0073ED05B49A268286818395C
:103FE00020F47060104328606068022818D003280D
:103FF00019D00968012819D0490700294ADADFF8E1
:1040000048A1AAF1080A00E044E0DAF8002022F012
:1040100007020243CAF80020FEF7FEFF814612E0C5
:1040200009688903E9E709688901E6E7C905E4E762
:10403000FEF7F2FFA0EB090141F28830814202D97C
:104040000320BDE8F09F6168DAF8000000F0380056
:10405000B0EBC10FECD1207880070AD5E068296861
:1040600001F00F01884204D2296821F00F010143B9
:104070002960D8F80010404601F00F01B9420BD971
:10408000016821F00F0139430160006800F00F0062
:10409000B84201D00120D4E7207840070AD5206932
:1040A000296801F07001884204D2296821F070016A
:1040B00001432960207800070AD56069316801F062
:1040C0007001884204D2316821F0700101433160EF
:1040D0002078C0060AD5A069316801F4E061884201
:1040E00004D2316821F4E061014331602078800618
:1040F0000CD5E1695846DBF8002002F070029142CD
:1041000004D2026822F070020A43026000F09AF8BA
:104110000E492A682B68C2F3032203F00F038A5C5E
:10412000C95C02F01F0201F01F01D040084A20FACA
:1041300001F111600749086007480068BDE8F05FB9
:10414000FEF7A6BF0020005218440258AC9A00089F
:104150001C000024180000241000002470B5144C2A
:104160003F220260124A24680832131D114D04F0E8
:104170000704446016681C1D06F4706686601668A5
:1041800006F00F06C660126802F0700202611A683B
:1041900002F0700242611A6802F4E06282612268F1
:1041A00002F07002C261286800F00F00086070BD64
:1041B000104402580020005230B500F043F80B4A7A
:1041C0000B490C4B15681468C5F3032204F00F0467
:1041D0008A5C095D02F01F0201F01F01D040064A0F
:1041E00020FA01F119601060084630BD18440258E9
:1041F000AC9A00081C0000241800002400B5FFF74A
:10420000DBFF05490968054AC1F30211515C01F061
:104210001F01C84000BD00001C440258AC9A0008B1
:1042200000B5FFF7C9FF05490968054AC1F3022136
:10423000515C01F01F01C84000BD00001C44025841
:10424000AC9A0008454970B545480968434B103B96
:1042500011F0380208D00111082A03D0102A0BD01F
:10426000182A0BD0084670BD19688906FBD5196855
:10427000C1F3C101C84070BD3A4870BD3749374DE0
:1042800018310C1D24350A68096826682D6802F06B
:10429000030406F00102C1F30511C5F3CC0515FBBB
:1042A00002F200EE102AB8EE400AE9B32F4ADFED21
:1042B0002E0AB7EE001A6CB1DFED2D1A012C01D0D9
:1042C000022C43D002EE101A1068F8EE422A81EE5A
:1042D000A22A1EE01C68A40611D51B6801EE901AE4
:1042E0001168C3F3C103F8EE612AD84001EE900AC9
:1042F000C1F30800F8EE611A81EEA22A0BE001EE8C
:10430000901ADFED1C2A00BFF8EE611A106882EEE9
:10431000A12AC0F3080001EE900AF8EE611A40EEFF
:10432000201A31EE810A00E015E022EE000A106842
:10433000C0F34620401C00EE900AF8EE600A80EEC2
:10434000201ABCEEC10A10EE100A70BD01EE901AE0
:10435000DFED092AD8E7002070BD000010440258A4
:104360000090D00340787D010000003930440258AD
:104370000024744A0024744C20BCBE4B2DE9F05F2D
:1043800004007DD0FF4F2078FE4D1837DFF8F493FE
:10439000103DC00748D0D9F80000396800F0380057
:1043A000102815D0182803D101F0030002280FD0DF
:1043B0006068B0F5803F12D010B1B0F5A02F18D0D2
:1043C000286820F480302860286820F4802009E0E4
:1043D0002868800328D560680028D2D024E02868A7
:1043E00040F480302860606888B1FEF715FE06460C
:1043F00009E0286840F480202860F0E7FEF70CFE12
:10440000801B64286FD828688003F7D50CE0FEF77E
:1044100003FE064605E000BFFEF7FEFD801B642894
:10442000F0D828688003F7D4207841F20308D54EED
:104430000C3E800769D5D9F80000396810F03800C3
:104440000ED0182801D188070AD0E06890B32968F7
:1044500021F0190101432960FEF7DEFD824631E0BB
:104460002868400702D5E06800288AD0E1682868FB
:1044700020F0190008432860FEF7CEFD824607E0D1
:10448000DFE000BFFEF7C8FDA0EB0A000228B9D8A4
:1044900028684007F6D500BFFEF7B8FD40451BD899
:1044A0002069402812D0316821F47C3141EA003083
:1044B00030602AE018E000BFFEF7AEFDA0EB0A0076
:1044C00002289FD828684007F6D5E5E7306820F431
:1044D0007C3040F40030EBE7207C316821F0FE4175
:1044E00041EA0060E4E70DE1286820F0010028605F
:1044F000FEF792FD824605E0FEF78EFDA0EB0A0076
:1045000002288DD828684007F6D42078C0065DD5EB
:10451000D9F80000DFF86CB2396800F03800ABF170
:10452000040B082810D0182803D101F0030001283B
:104530000AD0E0690028286838D040F08000286060
:10454000FEF76AFD824623E02868C00523D5E069AE
:10455000802876D11FE0206A202821D0316821F000
:10456000F84141EA8060306030E000BF94F82010EC
:10457000DBF8002022F07C5242EA0161CBF8001007
:1045800024E000BFFEF748FDA0EB0A00022898D8FF
:104590002868C005F6D5FEF739FD4045E6D8DAE7CC
:1045A000306820F0F84040F08040DCE720F08000E8
:1045B0002860FEF731FD064605E000BFFEF72CFD42
:1045C000801B02289DD82868C005F7D420780007F2
:1045D00029D56C486169643000298046016811D092
:1045E00041F001010160FEF717FD064605E000BF3E
:1045F000FEF712FD801B0228C9D8D8F800008007FA
:10460000F6D510E021F001010160FEF705FD064638
:1046100005E000BFFEF700FD801B022872D8D8F825
:1046200000008007F6D42078800623D5A0690028F2
:10463000286810D040F480502860FEF7EDFC064654
:1046400005E036E1FEF7E8FC801B02285AD828680E
:104650008004F7D50EE020F480502860FEF7DCFCE3
:10466000064604E0FEF7D8FC801B02284AD82868DA
:104670008004F7D4207840074FD5DFF80C81D8F8B4
:10468000001041F48071C8F80010FEF7C5FC064622
:1046900005E000BFFEF7C0FC801B642832D8D8F8C4
:1046A0000000C005F6D5374EA068603601280AD054
:1046B00008B1052813D0306820F001003060306860
:1046C00020F0040002E0306840F001003060A06893
:1046D00041F2883A90B1FEF79FFC80460AE03068CC
:1046E00040F004003060EEE7FEF796FCA0EB080116
:1046F000514507D830688007F6D50EE0FEF78CFCF0
:10470000804607E084E000BFFEF786FCA0EB0801CE
:1047100051457DD830688007F6D4606AB0B3DFF8C1
:104720006480D9F8001008F120084FF6F87B08F1F2
:104730000409C1F3C2010329A8F1040A69D00228BF
:10474000286820F08070286003D0FEF765FC0446DE
:1047500084E0FEF761FC064605E000BFFEF75CFC66
:10476000801B022877D828688001F7D4E26A40F2DB
:10477000F331386854F8283F884340EA0210184360
:10478000386004E01044025800480258B5E0217B2C
:10479000434622894FF4FE0C208A4FF0FE4749021F
:1047A000267D521E401EA1F50071C2F308088AB290
:1047B000761E0CEA004042EA08020243504607EA2D
:1047C00006610A431A60DAF8002022F00102CAF8F2
:1047D0000020D9F80020266A22EA0B0242EAC6022B
:1047E000C9F80020DAF80010A26921F00C01114389
:1047F000CAF800100168E26921F00201114301606A
:10480000016841F480310160016841F4003101E048
:1048100021E027E00160016841F480210160016826
:1048200041F001010160286840F080702860FEF7C7
:10483000F3FB044605E000BFFEF7EEFB001B022879
:1048400009D828688001F7D557E000BFFEF7E4FBE0
:10485000001B022802D90320BDE8F09F28688001D0
:10486000F4D44AE039680128D8F8000021D0A26ABF
:1048700001F0030393421CD1E26AC1F305118A429D
:1048800017D1216BC0F30802491E8A4211D1616B16
:10489000C0F34622491E91420BD1A16BC0F30642E0
:1048A000491E914205D1E16BC0F30660491E814269
:1048B00001D00120D0E7A16C4E46D9F80000C0F32A
:1048C000CC00814219D0DAF80000554620F00100F2
:1048D000CAF80000FEF7A0FB4FEA0007FEF79CFBBA
:1048E000B842FBD0A26C306820EA0B0040EAC2005C
:1048F0003060286840F0010028600020ACE700002C
:1049000003490A6822F4600202430A60704700000B
:104910000404005870477047704710B5040003D076
:1049200094F83D0010B107E0012010BD002084F88C
:104930003C00204600F022F8022084F83D00206868
:10494000211D01F0A5FA012084F8480084F83E00FA
:1049500084F83F0084F8400084F8410084F8420065
:1049600084F8430084F8440084F8450084F8460045
:1049700084F8470084F83D00002010BD7047000017
:1049800090F83D10012901D001207047174A0221FB
:1049900080F83D100168CB6843F00103CB600068EC
:1049A000904214D0B0F1804F11D0114988420ED0FE
:1049B000104988420BD01049884208D00F498842DC
:1049C00005D00F49884202D00E49884207D181683C
:1049D0000D4A1140062906D0B1F5803F03D0016889
:1049E00041F001010160002070470000000001401B
:1049F0000004004000080040000C0040000401409A
:104A000000180040004001400700010070472DE9F8
:104A1000F041044600680027C6680569A90713D558
:104A2000B10711D5FA1E0261012121772068806942
:104A30008007204602D0FFF7E9FF04E000F08BF882
:104A4000204600F089F82777680716D5700714D537
:104A5000226802206FF004011161207720688069CC
:104A600010F4407F204602D0FFF7D0FF04E000F0B2
:104A700072F8204600F070F82777280715D5300720
:104A800013D5226804206FF0080111612077206897
:104A9000C0698007204602D0FFF7B8FF04E000F0AD
:104AA0005AF8204600F058F82777E80616D5F006A1
:104AB00014D5226808206FF010011161207720685A
:104AC000C06910F4407F204602D0FFF79FFF04E04A
:104AD00000F041F8204600F03FF82777E80708D0BB
:104AE000F00706D021686FF001000861204600F051
:104AF00035F8280601D4A80408D5300606D5216863
:104B00006FF4025008612046FFF705FFE80508D55D
:104B1000300606D521686FF4807008612046FFF7E3
:104B2000F9FE680608D5700606D521686FF04000CA
:104B30000861204600F01CF8A8060AD5B00608D582
:104B400021686FF0200008612046BDE8F041FFF7C2
:104B5000E3BEBDE8F081704770470000006803497C
:104B6000884201D1FEF75EBA7047000000000140A4
:104B7000704730B590F88410012918D0012280F8D0
:104B800084202421C0F888100022202401680B68AA
:104B90000D6823F0005325F001050D6042660168A1
:104BA0000B60C0F8884080F88420104630BD022099
:104BB00030BD7047704770B5044690F884000128F6
:104BC0001DD0012284F884202420C4F888002068A5
:104BD0000568026822F0010202602068826822F003
:104BE00060620A438260204601F0B8F92268202101
:104BF00000201560C4F8881084F8840070BD02207D
:104C000070BD70B5044690F8840001281DD00122C3
:104C100084F884202420C4F888002068056802688D
:104C200022F0010202602068826822F060420A439A
:104C30008260204601F092F9226820210020156050
:104C4000C4F8881084F8840070BD022070BD7047DD
:104C5000704770472DE9F04107680025044640F68B
:104C60000F030226F8693968BA6818420AD1830628
:104C70007ED501F0200302F0805C53EA0C0377D06C
:104C8000616F7EE1D44BDFF854C3134001EA0C0C92
:104C900053EA0C0C6CD05FEAC07C0CD05FEAC15CBC
:104CA00009D54FF0010CC7F820C0D4F8907047F038
:104CB0000107C4F89070870709D5D70707D0276880
:104CC0003E62D4F8906046F00406C4F8906046074F
:104CD0000AD5D60708D0276804263E62D4F890602B
:104CE00046F00206C4F8906006070CD501F02006D5
:104CF0001E4308D0266808233362D4F8903043F06E
:104D00000803C4F8903003050BD54B0109D526687C
:104D10004FF400633362D4F8903043F02003C4F8BA
:104D20009030D4F89030002B3DD0800609D501F0AA
:104D3000200002F08051084303D0616F09B1204682
:104D400088472168D4F890008968490602D410F099
:104D5000280F2AD0204601F0E1F92068806840063B
:104D60001ED52068083050E8001F21F0400100E007
:104D700021E040E80012002AF3D1D4F8800078B195
:104D800097490165D4F88000FDF774FD00280AD02A
:104D9000D4F88000016D00E02046BDE8F0410847EE
:104DA0002046FFF756FFBDE8F0812046FFF751FF90
:104DB000C4F89050F7E7D4F86CC02023BCF1010F81
:104DC0007ED15FEAC06C7BD55FEAC16C78D51020DC
:104DD000386220688068400673D5D4F88020814905
:104DE0001068884234D07F491831884230D07D49DC
:104DF000303188422CD07B494831884228D07949CB
:104E00006031884224D077497831884220D0754972
:104E1000903188421CD07349A831884218D0724919
:104E2000884215D070491831884211D06E4930310E
:104E300088420DD06C494831884209D06A496031B6
:104E4000884205D068497831884201D0664990315E
:104E500040684FF480770004000C40D0B4F85C1038
:104E600081423CD9A4F85E00D069B8422FD02168B5
:104E700051E8000F20F4807041E80002002AF6D1CA
:104E80002068083050E8001F21F0010140E80012BE
:104E9000002AF5D12068083050E8001F21F04001B9
:104EA00040E80012002AF5D1C4F88C30E56620688D
:104EB00050E8001F21F0100140E80012002A01E034
:104EC0004AE019E0F3D1D4F88000FDF723FB266710
:104ED000B4F85C00B4F85E10401A81B208E0B4F88F
:104EE0005C1081427FF466AFD069B842FAD1266780
:104EF0002046FFF75EFE56E7B4F85C00B4F85E109B
:104F0000B4F85E20401A81B2002AF4D00029F2D011
:104F1000226852E8000F20F4907042E80007002F4A
:104F2000F6D1324F206800F1080050E8002F02EA65
:104F3000070240E8002CBCF1000FF3D1C4F88C301C
:104F4000E5666567226852E8000F20F0100042E82D
:104F50000003002BF6D1CAE7C60209D5560207D5D1
:104F60004FF4801038622046BDE8F041FFF770BE74
:104F700006060AD501F0800602F40002164304D0AA
:104F8000A16F00297FF408AF0DE7420611D54A064C
:104F90000FD52046016851E8002F22F0400241E879
:104FA0000024002CF6D1C0F88830856700F078F92D
:104FB000F9E6020206D54A0004D52046BDE8F041D4
:104FC000FFF745BEC00196D5002994DA2046BDE81A
:104FD000F041FFF7EFBD00000100001020010004C8
:104FE000136100081000024010040240FEFFFFEFB2
:104FF00010B5040003D0D4F8880010B107E00120F8
:1050000010BD002084F88400204600F027F82420FA
:10501000C4F888002068016821F001010160A06ADD
:1050200010B1204600F0BCFF204601F0A1F8012895
:10503000E6D02068416821F4904141602068816891
:1050400021F02A0181602068016841F001010160BE
:105050002046BDE8104001F007B8000010B5B6B01A
:105060000446142130A8FBF7C2FCC0216846FBF7B8
:10507000BEFC1D492068884233D100201E900221C9
:105080000446CDE900106846FEF764FA08B1FDF762
:1050900031FA1648016841F480210160006800F48B
:1050A0008020359011480838016841F00201016004
:1050B000006830AB022100F0020035904FF44060F0
:1050C000072283E813000A4830A9CDE93342FDF7EF
:1050D00075FE002205212720FEF78AF82720FEF71B
:1050E00079F836B010BD000000480040E84402588E
:1050F000000402582DE9F84F0446D0F88C009B4676
:1051000016460D46202802D00220BDE8F88F8DB348
:1051100086B30027C4F890702220C4F88C00E7669C
:105120002034FDF779FF824654F8180CA6874FF417
:105130008053E687FF21203C984204D12269B2B90E
:1051400040F2FF1113E04FF07F0270B1B0F1805FC9
:1051500011D0A4F8607000BFB4F86070984201D11B
:10516000206978B12E4600250DE026693EB9A4F8E5
:105170006010F1E728E0216909B13F21F7E7A4F8C1
:105180006020E9E700264FF0200807F0FF0900BF84
:10519000B4F85E0020B30022534620212046CDF80B
:1051A00000B001F0BBF918B1C4F88C800320ACE763
:1051B0002068406A56B100EA090006F8010B00BFFA
:1051C000D4F88C00222805D001209EE7384025F82D
:1051D000020BF5E7B4F85E00401EA4F85E00D7E7C6
:1051E000C4F88C80002090E72DE9F84F0446D0F8F1
:1051F0008800984615460E46202802D00220BDE8B9
:10520000F88F96B38DB300214FF02109C4F89010A8
:10521000C4F888901834FDF7FFFE824654F8100C4D
:10522000A587E587183CB0F5805F01D1206910B1F2
:105230003546002600E000255FF02007B4F8560050
:1052400053464FF00002CDF80080E0B180212046A7
:1052500001F064F9E0B955B115F8010B21688862D5
:10526000D4F8881039EA010007D00120C7E736F8E2
:10527000020B2168C0F30800F1E7B4F85600401EA5
:10528000A4F85600DAE74021204601F047F918B1AA
:10529000C4F888700320B2E7C4F888700020AEE735
:1052A0007047FEE710B54FF00004EFF3058048B9F2
:1052B00004F012F9012806D0EFF3108010B9EFF3D3
:1052C000118000B10124204610BD000011490022C8
:1052D000114870B50E4B80240B60E1250270012649
:1052E00044704FF4C0638570C270027142714860AF
:1052F0000A480E72C8600A48C1E904030846FDF76F
:10530000C7FB002803D0BDE87040FDF7F3B870BDBF
:1053100000800240080100240400002480000030C6
:1053200000000030044A0021044810B501F000FBE1
:105330000349086010BD0000609A0008C15C0008C5
:10534000000000242DE9F04786B014216846FBF7E1
:105350004EFB3848016841F010010160016801F01E
:1053600010010591016841F480710160016801F448
:1053700080710591016841F004010160016801F04C
:1053800004010591016841F080010160016801F0AC
:1053900080010591016841F001010160016801F09F
:1053A00001010591016841F002010160016801F00D
:1053B00002010591016841F040010160006800228E
:1053C0001D4E602100F0400005903046FDF718FEAC
:1053D000DFF868904FF48077002239464846FDF7A1
:1053E0000FFEDFF85CA04FF4005800224146504603
:1053F000FDF706FE00246946012560200090CDE9F6
:10540000015430460394FDF7D9FC11266946CDE9D5
:1054100002544846CDE90076FDF7D0FCCDE90254B0
:10542000CDE9008669465046FDF7C8FC06B0BDE8E8
:10543000F0870000E0440258001002580020025893
:10544000000802581848002110B5164C0C224FF4E1
:10545000E1330460C0E90131C160C0E90412816137
:10546000C161016241628162FFF7C2FD08B1FDF7CF
:1054700041F80D480021FFF7C4FB08B1FDF73AF8E9
:1054800009480021FFF797FB08B1FDF733F80648FC
:10549000FFF76FFB002803D0BDE81040FDF72AB8E6
:1054A00010BD000000480040B8010024FEE7FEE700
:1054B00030B5084C00221146002004EBC113451CF6
:1054C0001A54E8B28028FAD3491CC9B20829F3D388
:1054D00030BD00006C4B0024F0B5CD1825E08318DA
:1054E00004461EE07F2C1AD8002918DB3F2916DC61
:1054F0004FEAE17C0E4E012701EB5C7E4FEAEE0C99
:105500002EF0070E06EBCC16A1EB0E0C264407FA84
:105510000CF796F800C02CEA070C86F800C0641C53
:1055200024B2A342DEDC491C09B28D42D7DCF0BDB7
:105530006C4B002410B500F00BFBAE2000F0BEF960
:10554000D52000F0BBF9802000F0B8F9A82000F0C9
:10555000B5F93F2000F0B2F9D32000F0AFF90020F8
:1055600000F0ACF9402000F0A9F9A12000F0A6F964
:10557000C82000F0A3F9DA2000F0A0F9122000F012
:105580009DF9812000F09AF9CF2000F097F9D920F9
:1055900000F094F9F12000F091F9DB2000F08EF991
:1055A000302000F08BF9A42000F088F9A62000F04C
:1055B00085F98D2000F082F9142000F07FF9AF20EA
:1055C00000F07CF9FFF774FFBDE8104000F062B90D
:1055D00010B540F0B0000C4600F070F9102040EA21
:1055E000141000F06BF904F00F00BDE8104000F05B
:1055F00065B90000082B08B50DD0062B0AD10A4B5F
:1056000002EB420203EB4202C03A00920823062258
:1056100000F00EF808BD054B03EB02121023A2F5B3
:10562000007200920822F3E7ACA00008BC9A0008C0
:105630002DE9F04F00241E46154689468346FFF7A4
:105640004BFF761EDFF8A4E00121F01706EB507047
:1056500001EBE00646E0002040E000BF0BEB00035A
:105660007F2B39D84FEAE97209EB527121F0070715
:10567000CA10B9F1000FA9EB070103DA521E083175
:1056800012B209B202EB040ABAF1070F0ED8099F51
:105690000EEBCA1214FB05FC07EB0008D75C1CF8E4
:1056A00008C00CFA01FC47EA0C07D7540AF10102C2
:1056B000072A11D8099F14FB05FC07EB0008C1F16C
:1056C00008070EEBCA1119441CF8082091F8803025
:1056D000FA40134381F88030401CC0B2A842BDD3C9
:1056E000641CE4B2A642B6DCBDE8F08F6C4B00242B
:1056F0002DE9FF4F4FF0000ADFF8CC9083B09B46B6
:1057000090465546544657E0100610D403986D1C39
:105710008DF80420ADB22044049900B25B468DF8A8
:1057200005A0FFF767FF04EB0B0084B244E06D1C9B
:105730008DF80420A8B218F80010002940D0401CB1
:105740008DF8051085B28DF806A0002606E001A9A7
:105750003846FBF773F960B1761CB6B21BA1C6EBF5
:10576000C60000EB800048440746FBF767F90028B5
:10577000EDD1BBF1080F03D0BBF1060F1CD111E036
:10578000C6EBC600102300EB80011A4601EB0900AE
:105790000499C01C00900398204400B2FFF748FF12
:1057A000103408E00398062304993F22204400B2F5
:1057B000FFF720FFA41DA4B218F80520002AA3D1EA
:1057C00007B0BDE8F08F0000E6A20008000000006E
:1057D00086B00024FFF7AEFE0021082308461BA276
:1057E000FFF786FF0823022100201CA2FFF780FF9D
:1057F00000F050F84FF47A7003F0A4F86426641CAB
:10580000B4FBF6F018A1224606FB10456846FAF7ED
:10581000FFFE00216A4608230846FFF769FF15A12D
:105820002A466846FAF7F4FE08236A460221002059
:10583000FFF75EFF08230421002012A2FFF758FFA4
:1058400000F028F8C82003F07DF8D8E747617465B8
:105850007761792053797374656D000053746174B6
:1058600075733A204F4B0000436F756E743A2025D4
:105870006C6400004C6F61643A202025642025256B
:10588000000000005461736B3A2052756E6E696EB1
:105890006720000070B5084D002400212046FFF766
:1058A00097FE802105EBC41000F019F8641CE4B2E7
:1058B000082CF2D370BD00006C4B002410B50446D8
:1058C00000F0A6F9782000F071F9002000F06EF9E0
:1058D000204600F06BF9BDE8104000F0C5B970B586
:1058E0000D46064600F094F9782000F05FF940205C
:1058F00000F05CF9002404E0305D00F057F9641C0E
:10590000E4B2AC42F8D3BDE8704000F0ADB900009D
:105910002DE9F047454D044689464FF0000A2868B6
:10592000C04380070AD0414E283E306820F0806096
:105930003060FDF771FB0746B04608E00120BDE886
:10594000F08700BFFDF768FBC01B022867D8D8F8B6
:1059500000000001F6D4206829684FF4FE0721F406
:105960007C313E0241EA00302860207AA389B4F8F5
:1059700004C040022D4D2D495B1E227CACF1010C70
:105980001035091DA0F5007080B2521ECCF3080C32
:1059900007EA034340EA0C00184306EA0262104398
:1059A00028600868626920F0C000104308600A6837
:1059B000A06922F0200202430A60281D0A6822F032
:1059C00010020A6002684FF6F873E4699A4342EAEB
:1059D000C40202600868B9F1000F40F010020A60CA
:1059E00011D00868B9F1010F11D040F4001008601F
:1059F000D8F80000444640F08060C8F80000FDF789
:105A00000BFB05460DE0086840F40020EFE740F48A
:105A10008010ECE7FDF700FB401B022801D90320B2
:105A20008DE720680001F5D5504688E728440258E4
:105A30002DE9F047454D044689464FF0000A286895
:105A4000C04380070AD0414E283E306820F0805085
:105A50003060FDF7E1FA0746B04608E00120BDE8F6
:105A6000F08700BFFDF7D8FAC01B022867D8D8F826
:105A700000008000F6D4208829684FF4FE0721F04A
:105A80007C713E0241EA00502860207AA389B4F874
:105A900004C040022D4D2D495B1E227CACF1010C4F
:105AA0001835091DA0F5007080B2521ECCF3080C09
:105AB00007EA034340EA0C00184306EA0262104377
:105AC00028600868626920F44060104308600A6832
:105AD000A06922F4007202430A60281D0A6822F4B9
