:020000040800F2
:10000000E05B0024F9030008C3380008BB36000891
:10001000C13800088F070008B14B0008000000003D
:10002000000000000000000000000000390300088C
:10003000910700080000000095030008B74200087F
:100040001704000817040008170400081704000824
:100050001704000817040008170400081704000814
:100060001704000817040008170400081704000804
:1000700017040008170400081704000817040008F4
:1000800017040008170400081704000817040008E4
:1000900017040008170400081704000817040008D4
:1000A0001704000879440008170400081704000822
:1000B00017040008170400081704000817040008B4
:1000C00017040008170400081704000817040008A4
:1000D000170400081704000817040008A54B0008BF
:1000E00017040008170400080000000017040008A7
:1000F0001704000817040008170400081704000874
:100100001704000817040008170400081704000863
:100110001704000817040008170400081704000853
:100120001704000817040008170400081704000843
:100130001704000817040008170400081704000833
:1001400000000000000000000000000000000000AF
:100150001704000817040008170400081704000813
:100160001704000817040008170400081704000803
:100170001704000817040008170400080000000016
:1001800017040008170400081704000817040008E3
:1001900017040008170400081704000817040008D3
:1001A00017040008170400081704000817040008C3
:1001B00017040008170400081704000817040008B3
:1001C00017040008170400081704000817040008A3
:1001D0001704000817040008170400081704000893
:1001E0001704000817040008170400081704000883
:1001F0001704000817040008170400081704000873
:100200001704000817040008170400081704000862
:100210001704000817040008170400081704000852
:100220001704000817040008170400080000000065
:100230001704000817040008000000001704000855
:100240001704000817040008170400081704000822
:100250001704000817040008170400081704000812
:100260001704000817040008170400081704000802
:100270001704000817040008170400080000000015
:100280001704000817040008170400080000000005
:10029000000000001704000800F002F800F03CF82D
:1002A0000AA090E8000C82448344AAF10107DA45D1
:1002B00001D100F031F8AFF2090EBAE80F0013F0E7
:1002C000010F18BFFB1A43F001031847F063000049
:1002D00010640000103A24BF78C878C1FAD85207D9
:1002E00024BF30C830C144BF04680C6070470000B0
:1002F0000023002400250026103A28BF78C1FBD82F
:10030000520728BF30C148BF0B6070471FB506F0C9
:1003100055F91FBD10B510BD00F000FA1146FFF7EA
:10032000F5FF04F0C8FD00F01EFA03B4FFF7F2FF7A
:1003300003BC00F025FA00002C4B19680868B0E8EF
:10034000F04F80F30988BFF36F8F4FF0000080F308
:10035000118870470000000008480068006880F3BA
:1003600008884FF0000080F3148862B661B6BFF3CE
:100370004F8FBFF36F8F00DF00BF00BF08ED00E0BD
:10038000DFF80C00016841F470010160704700BFA4
:1003900088ED00E0EFF30980BFF36F8F134B1A680D
:1003A0001EF0100F08BF20ED108A20E9F04F1060FA
:1003B00009B44FF0500080F31188BFF34F8FBFF3A3
:1003C0006F8F05F055FC4FF0000080F3118809BCD9
:1003D00019680868B0E8F04F1EF0100F08BFB0ECC5
:1003E000108A80F30988BFF36F8F704720000024C4
:1003F000EFF30580704700000A4880470A488047AD
:100400000A480047FEE7FEE7FEE7FEE7FEE7FEE7F5
:10041000FEE7FEE7FEE7FEE705480649064A074B0A
:1004200070470000CD0A00088143000899020008C7
:10043000E0550024E05B0024E0570024E05700244E
:1004400053EA020C00F069802DE9F04B4FF00006F2
:10045000002B1FBFB3FA83F503FA05F424FA05F65F
:100460005E4012BF1643B2FA82F502FA05F4C5F1F6
:1004700020051EBF22FA05FC44EA0C04203556EA8A
:10048000044C4FEA144418BF641C4FF000084FF0AE
:100490000009904271EB030C39D3002919BFB1FA5E
:1004A00081F701FA07F6B0FA80F700FA07F6C7F10C
:1004B00020071EBF20FA07FC46EA0C062037B6FBD1
:1004C000F4FCA7EB0507103F07F01F0BCBF120064C
:1004D0000CFA0BFB2CFA06F644BFB3460026202F7D
:1004E000A4BF5E464FF0000B5BEA060C08BF4FF05E
:1004F000010B19EB0B09ABFB027C48EB0608C01B98
:1005000006FB02CC0BFB03CC71EB0C01C1E70B46E5
:10051000024641464846BDE8F08B13B54FF0000057
:100520004FF00001AFF30080BDE81C40704740EA87
:10053000010310B59B070FD1042A0DD310C808C9B9
:10054000121F9C42F8D020BA19BA884201D9012062
:1005500010BD4FF0FF3010BD1AB1D30703D0521CAD
:1005600007E0002010BD10F8013B11F8014B1B1BE8
:1005700007D110F8013B11F8014B1B1B01D1921E52
:10058000F1D1184610BD032A40F2308010F0030C60
:1005900000F0158011F8013BBCF1020F624498BFD6
:1005A00011F801CB00F8013B38BF11F8013BA2F173
:1005B000040298BF00F801CB38BF00F8013B11F0EE
:1005C000030300F07980083AC0F0088051F8043B3A
:1005D000083A51F804CBA0E80810F5E7121D5CBFFB
:1005E00051F8043B40F8043BAFF30080D20724BF2E
:1005F00011F8013B11F801CB48BF11F8012B24BFC2
:1006000000F8013B00F801CB48BF00F8012B704710
:1006100002F0FF0343EA032242EA024200F002B87A
:100620004FF000020429C0F0128010F0030C00F01B
:100630001B80CCF1040CBCF1020F18BF00F8012B99
:10064000A8BF20F8022BA1EB0C0100F00DB85FEA67
:10065000C17C24BF00F8012B00F8012B48BF00F833
:10066000012B70474FF0000200B5134694469646A2
:10067000203922BFA0E80C50A0E80C50B1F12001B5
:10068000BFF4F7AF090728BFA0E80C5048BF0CC063
:100690005DF804EB890028BF40F8042B08BF7047C1
:1006A00048BF20F8022B11F0804F18BF00F8012B33
:1006B000704770477047704710B5203AC0F00B8004
:1006C000B1E81850203AA0E81850B1E81850A0E856
:1006D0001850BFF4F5AF5FEA027C24BFB1E81850B0
:1006E000A0E8185044BF18C918C0BDE810405FEA20
:1006F000827C24BF51F8043B40F8043B08BF70479C
:10070000D20728BF31F8023B48BF11F8012B28BFA0
:1007100020F8023B48BF00F8012B7047754600F0F7
:100720002BF8AE4605006946534620F00700854683
:1007300018B020B5FFF770FEBDE820404FF000066E
:100740004FF000074FF000084FF0000B21F00701B9
:10075000AC46ACE8C009ACE8C009ACE8C009ACE8FC
:10076000C0098D46704710B50446AFF3008020469F
:10077000BDE81040FFF7D9BD004870477C55002404
:1007800001491820ABBEFEE7260002007047FEE7D5
:10079000704770B5A2B0064600244FF4C36001252F
:1007A0008DF80F5002238DF81D4069038DF80E500F
:1007B00009948DF81F400D9020208DF804508DF87D
:1007C000325042028DF8605006914FF040518DF842
:1007D000384002948DF861408DF81C408DF8284017
:1007E0008DF862408DF80C400B948DF81E500F94DC
:1007F0008DF8115012948DF840408DF831408DF8ED
:10080000124014948DF856401790304616938DF888
:10081000205005928DF854408DF830408DF81050DE
:10082000009169468DF80D408DF8554011948DF872
:100830004C5000F075F81B9568058DF871404FF429
:1008400006718DF8685019948DF880408DF87040CD
:100850001F908DF878401D9030468DF88140219191
:1008600019A900F003F822B070BD0000F0B50268CD
:1008700047F6020E274E4DF2010702F58052264D33
:10088000D1F800C01368254C23EA0E0343EA0C0399
:1008900013600B79026891F80CE002F58052D1F8F0
:1008A00008C01B0343EACE3343EA0C03D2F804C06A
:1008B0002CEA070C4CEA030CC2F804C002684F7B18
:1008C00002F580520B6A43EA0747D2F80031334001
:1008D0003B43C2F8003102680B7D02F5805291F86B
:1008E0001DC00F69D2F804611B0143EA0C332E408E
:1008F0003B431E43C2F8046100680B7F00F5805043
:100900008A69D0F8081142EAC37221401143C0F845
:100910000811F0BD00C0FEFFEFEFC0FFFFFFC07F7A
:10092000F0B50B790C7B0F688A68DB064D7B43EAD8
:10093000C4533A438E7B1A43CF7B91F810C042EAEE
:10094000855242EA4652BCF1000F42EA07537CD07E
:1009500000224C7C002C43EAC24278D000238E7CDB
:100960000D7F42EA43428F7FD1E9053442EA0642D5
:100970004E7F1A43224342EA0532002F42EAC62440
:1009800066D00022CD7F91F8203044EA8222002BED
:1009900042EA45227ED0002504684B6A42EA0522DD
:1009A00091F82870464D1A43CE6A236842EA07122E
:1009B00032432B401343236091F83C2091F83830A8
:1009C00091F8305091F83140520642EA036291F8B2
:1009D000326042EA854242EA4444BEB300220368E0
:1009E000384E4F6B44EA02425C683A4340F20F15BE
:1009F000344014435C60036891F840604C6CDA68E2
:100A000044EA0624AA432243DA6091F854300A6D7E
:100A100091F84C4042EA4302ECB300240368B1F879
:100A200048504FF60D76E7011C6F47EA05452A430B
:100A3000344014431C67026891F8563091F85550C1
:100A400052F8904F43EA450303E02BE032E02BE0FD
:100A50002CE024F003041C43146002688C6DD2F86F
:100A6000003D23F072032343C2F8003D91F860205B
:100A7000CC6D1AB35FF00003026891F8615091F8F1
:100A8000621044EA8310D2F8303D2C0144EAC101DF
:100A9000084301E00CE00FE023F07B010143C2F8C2
:100AA000301DF0BD012254E7012358E7012269E718
:100AB000012571E7012292E70124AFE70123DBE77B
:100AC000838004000080F8C072B6FEE7054805493F
:100AD0000839026842F00202026008688004FCD50E
:100AE000704700000C4802582DE9F84F044600F00A
:100AF00075FD00903CB194F83500022806D08021A5
:100B000061650020E4E00120BDE8F88FC74DC74EC5
:100B1000C649183520683036DFF81483DFF814939F
:100B20008842DFF814A3DFF814B328D0A84226D0F7
:100B3000B04224D0404522D0484520D050451ED058
:100B400058451CD0BD4A1832904218D0BC4A904239
:100B500015D0BB4A1832904211D0B94A3032904277
:100B60000DD0B74A4832904209D0B54A603290421F
:100B700005D0B34A7832904201D0B14A903202682F
:100B800022F001020260206888422ED0A8422CD0B8
:100B9000B0422AD0404528D0484526D0504524D0E0
:100BA000584522D0A54A183290421ED0A44A9042FD
:100BB0001BD0A34A1832904217D0A14A303290423B
:100BC00013D09F4A483290420FD09D4A60329042E3
:100BD0000BD09B4A7832904207D0994A903290428B
:100BE00003D0974AA832904209D1026822F01E022F
:100BF00002602068426922F08002426103E00268DC
:100C000022F00E0202602768884938468F424DD094
:100C1000A8424BD0B04249D0404547D0484545D086
:100C2000504543D0584541D08449183188423DD081
:100C3000834988423AD082491831884236D0804967
:100C40003031884232D07E49483188422ED07C49AA
:100C5000603188422AD07A497831884226D0784952
:100C60009031884222D07649A83188421ED07549F9
:100C700088421BD073491431884217D071492831FA
:100C8000884213D06F493C3188420FD06D495031B2
:100C900088420BD06B496431884207D0694978316A
:100CA000884203D067498C318F4214D1206E01688D
:100CB00021F4807101600EE000F090FC0099401A70
:100CC000052808D9202262650321002084F8351008
:100CD00084F8340017E73868C007EDD1534A012182
:100CE000206890422ED0A8422CD0B0422AD0404555
:100CF00028D0484526D0504524D0584522D04F4BC7
:100D0000183398421ED04E4B98421BD04C4B183390
:100D1000984217D04A4B3033984213D0484B48334F
:100D200098420FD0464B603398420BD0444B7833F7
:100D3000984207D0424B9033984203D0404BA8339F
:100D4000984208D194F85C703F23A06D07F01F070C
:100D5000BB40836007E094F85C30A06D03F01F0394
:100D600001FA03F34360206890424DD0A8424BD073
:100D7000B04249D0404547D0484545D0504543D082
:100D8000584541D02D4A183290423DD02C4A9042CD
:100D90003AD02B4A1832904236D0294A303290420B
:100DA00032D0274A483290422ED0254A60329042B3
:100DB0002AD0234A7832904226D0214A903290425B
:100DC00022D01F4AA83290421ED01E4A90421BD009
:100DD0001C4A1432904217D01A4A2832904213D03B
:100DE000184A3C3290420FD0164A503290420BD0F3
:100DF000144A6432904207D0124A7832904203D0AB
:100E0000104A8C3290420BD1D4E919024260E06E54
:100E100030B1026822F480720260D4E91C024260A0
:100E2000002084F8351084F834006DE6100002408C
:100E3000580002407000024088000240A0000240BA
:100E400010040240085402582DE9F05F28B190F8D0
:100E50003510022904D0802141650120BDE8F09FB2
:100E6000764A764BDFF8D4C1183201683033744CBF
:100E7000DFF8D0B16145744D744E754FDFF8D4E1A1
:100E8000DFF8D4A1DFF8D49131D091422FD099422C
:100E90002DD0A1422BD0594529D0A94227D0B1420B
:100EA00025D0B94223D0DFF8AC81A8F178084145BC
:100EB0001DD0DFF8A081A8F16008414517D0DFF808
:100EC0009481A8F14808414511D0DFF88881A8F144
:100ED000300841450BD0DFF87C81A8F11808414566
:100EE00005D0714503D0514501D049452AD14FF075
:100EF000040880F8358061451FD091421DD0994289
:100F00001BD0A14219D0594517D0A94215D0B142E2
:100F100013D0B94211D04F48783881420DD04D4896
:100F20006038814209D04B484838814205D0494851
:100F30003038814201D047481838086820F0010055
:100F4000086078E0D1F8008028F00108C1F800803E
:100F50000168D1F8008028F00E08C1F8008001680F
:100F6000614546D0914244D0994242D0A14240D0FE
:100F700059453ED0A9423CD0B1423AD0B94238D0CE
:100F8000344A783A914234D0324A603A914230D071
:100F9000304A483A91422CD02E4A303A914228D0D9
:100FA0002C4A183A914224D0714522D0514520D084
:100FB00049451ED02A4A91421BD0294A14329142F7
:100FC00017D0274A2832914213D0254A3C32914209
:100FD0000FD0234A503291420BD0214A64329142C1
:100FE00007D01F4A7832914203D01D4A8C32914279
:100FF00018D1026E0121136823F48073136090F8F6
:101000005C30826D03F01F0399405160D0E91912E2
:101010004A60C16E31B10A6822F480720A60D0E978
:101020001C124A600122016D002380F8352080F8EF
:10103000343001B18847002010E700001000024062
:10104000580002407000024088000240A0000240A8
:10105000B800024088040240A0040240B8040240E4
:1010600008540258F8B5040003D0D4F8840010B135
:1010700007E00120F8BD2020C4F88400204600F0DD
:10108000D7F86648016841F002010160006800F08D
:1010900002000090207A08B14FF4000001F012FF26
:1010A0005F492068096800F58050016841F001013E
:1010B000016000F093FAE02605464FF4FA7706E067
:1010C00000F08CFA401BB84201D9042023E02068CC
:1010D00000F580500068C007F2D1204600F024F9E6
:1010E00001F04CFB4F4A2168B0FBF2F0401EC1F802
:1010F000DC002046FFF74DFB206800F58050D0F85B
:10110000001121F4E01141F40021C0F800116169DF
:10111000880705D00120C4F88800C4F88460A8E7D7
:10112000206847F6FE7300F58050D0F808219A43F6
:1011300042EA4101C0F8081100210846E26800EBCC
:10114000400504EB800302EBC50211605160916021
:10115000D160401C04289A61F0D3A1620323206867
:1011600000F58050C0F82C312068E26800F580500E
:10117000C0F814212068E26800F58050C0F82021F2
:101180005FF00002206902EB420604EB820500EBEF
:10119000C600016041608160C160521C0161042A87
:1011A0004161A864EED3E1652166A166E166A165AF
:1011B000206800F58050C0F830312068226900F5C1
:1011C0008050C0F81C212268206902F58052483006
:1011D000C2F828011025D4E90060134A134B808817
:1011E000C6F80003D4E900600778D0F8010047EAA8
:1011F0000020C6F804032068D0F80C671643C0F836
:101200000C672068D0F810271A43C0F81027C4F8DC
:101210008810C4F884500020F8BD0000F44402583F
:101220000404005840420F006000020C00C0200C73
:1012300070B586B0044614216846FFF713FA3449A6
:101240002068884262D13348016841F4004101605E
:10125000016801F400410591016841F480310160A9
:10126000016801F480310591016841F400310160A9
:10127000006800F40030059026480830016841F00D
:1012800004010160016801F004010591016841F069
:1012900001010160016801F001010591016841F05F
:1012A00002010160016801F002010591016841F04D
:1012B00040010160006802240025694600F04000FA
:1012C000059032200B268DE831001348CDE9034606
:1012D00000F05EF8862069468DE831000F48CDE9C0
:1012E000034600F055F8200369468DE831000C48AC
:1012F000CDE9034600F04CF84FF4205069468DE8E4
:1013000031000848CDE9034600F042F806B070BD50
:1013100000800240D84402580008025800000258D9
:10132000000402580018025870B505460068D0F84D
:10133000000220F4706401F021FA1049884202D2C0
:1013400044F4007416E00E49884202D244F440741A
:1013500010E00C4988420DD30B49884202D244F474
:10136000807407E00949884202D244F4806401E0B5
:1013700044F4A0642868C0F8004270BDC00E160294
:101380000087930300E1F50580D1F00880B2E60EF6
:101390002DE9F84F03247F4D00234FF001094FF052
:1013A000B04B4FF00F0AEDE009FA03F632407AD065
:1013B0000F7907F00307012F01D0022F19D1876899
:1013C0004FEA430ED1F80CC004FA0EF827EA0807DA
:1013D0000CFA0EFC4CEA070CC0F808C0D0F804C0A8
:1013E0000F792CEA060CC7F300179F4047EA0C0759
:1013F00047600E79F643B60702D18E68012E0BD0F6
:10140000C6684FEA43088F6804FA08FC26EA0C060F
:1014100007FA08F73743C7600E7906F00306022E75
:1014200012D1DE080F694FEA437C00EB8606B64610
:10143000366A4FEADC6C0AFA0CF807FA0CF726EA6F
:1014400008063743CEF820700F7906684FEA430844
:1014500007F0030704FA08FC07FA08F726EA0C0667
:10146000374307604E6816F4403F1CD04A4E376839
:1014700047F00207376036689F0706F002060096BD
:1014800023F0030606F1B046B6463F0FD6F80864CF
:10149000DFF808810AFA07FC404526EA0C0603D16A
:1014A0004FF0000C41E06CE0DFF8F4C0604502D181
:1014B0004FF0010C39E0DFF8ECC0604502D14FF08D
:1014C000020C32E0DFF8E0C0604502D14FF0030CBF
:1014D0002BE0DFF8D8C0604502D14FF0040C24E0C7
:1014E000DFF8CCC0604502D14FF0050C1DE0DFF8FD
:1014F000C4C0604502D14FF0060C16E0DFF8B8C05A
:10150000604502D14FF0070C0FE0DFF8B0C0604536
:1015100002D14FF0080C08E0DFF8A4C0604502D10A
:101520004FF0090C01E04FF00A0C0CFA07FC4CEAF2
:10153000060CCEF808C44F68DBF80060FF0226EA0C
:10154000020600D516435F46CBF80060D1F804C010
:10155000DBF804605FEA8C2C26EA020600D516430D
:101560007E606E684F6826EA0206BF0300D5164308
:101570006E602E684F6826EA0206FF0300D5164308
:101580002E605B1C0A6832FA03F67FF40DAFBDE8EB
:10159000F88F000080000058F44402580000025800
:1015A0000004025800080258000C025800100258AB
:1015B0000014025800180258001C0258002002585B
:1015C000002402580AB1816170470904FBE700005A
:1015D00001480068000C70470010005C01488068FA
:1015E000704700000C000024024881680278114412
:1015F000816070470C000024032010B500F0FAF859
:1016000001F002F90F4A104914681368C4F3032269
:1016100003F00F038A5CC95C02F01F0201F01F0196
:10162000D0400A4A20FA01F11160094908600F20F0
:1016300000F010F808B1012010BD00F09BF8002068
:1016400010BD000018440258146600081C00002455
:101650001800002410B5102804468AB02AD20022AF
:101660000146192000F0A6F8192000F095F8154859
:1016700004601548016841F001010160006808A993
:1016800000F001000990684601F04AF801F0AAF85C
:101690000E49400000220E4CB0FBF1F10D4840F223
:1016A000E7330460C0E90332491EC0E9011201F0CA
:1016B00016FC10B101200AB010BD064801F042FC32
:1016C000F9E7000010000024F044025840420F00E7
:1016D00000000140F8010024154BF0B5083B4278AA
:1016E00013491A600B680A1F23F001030B6043685B
:1016F0001360057BC67A827A437B2D07847B45EA9B
:101700000665C77B90F809C0067A90F800E045EAC4
:10171000C24040EA834040EA444040EA074040EA91
:101720000C2040EA460040EA0E000860F0BD0000D0
:10173000A0ED00E0BFF35F8F044800210368034A77
:1017400023F48033036070321160704724ED00E0B1
:10175000074A40F00100064970321060086840F402
:1017600080300860BFF34F8FBFF36F8F704700006A
:1017700024ED00E0074882B0016841F002010160F9
:10178000006800220F2100F002000090901E02B0BD
:1017900000F010B8F4440258002809DB410900F0B9
:1017A0001F028900012001F1E0219040C1F80001F1
:1017B000704700000E4BF0B41B680D46C3F30223C4
:1017C000C3F10706042E00D90426191D072901D2EA
:1017D000002300E0DB1E012404FA06F19C40491EB0
:1017E0002940641E994014402143F0BC03F052BBD1
:1017F0000CED00E0064900F0070210B54FF6FF04BB
:101800000868044B204040EA02201843086010BDDD
:101810000CED00E00000FA05134970B50A68D243E8
:10182000520705D5096801F00701814213D118E07C
:101830000A6822F0070202430A60FFF7CFFE0A4D52
:101840004FF47A760446083D07E000BFFFF7C6FE76
:10185000001BB04201D9012070BD2868C04380043C
:10186000F4D4002070BD00000C48025810B500F000
:1018700085FF05490968054AC1F30211515C01F071
:101880001F01C84010BD0000204402581466000823
:10189000494930B5484C0B1D0A68143409681D6865
:1018A000246802F00303C5F30012C1F30531C4F349
:1018B000CC04002914FB02F200EE102AF8EE400AD4
:1018C00075D03F4A9FED3D1AB7EE000A6BB1DFEDD0
:1018D0003D1A012B01D0022B64D002EE101A1168C0
:1018E000F8EE422A81EEA22A21E0334C283C2368FC
:1018F0009B0612D5344B246801EE901A1168C4F38C
:10190000C104F8EE612AE34001EE903AC1F3080108
:10191000F8EE611A81EEA22A0BE001EE901ADFEDDB
:101920002B2A00BFF8EE611A116882EEA12AC1F3DA
:10193000080101EE901A1168F8EE611A40EE811A62
:1019400071EE800A62EE200AC1F3462101EE101A00
:10195000B8EE411A31EE001AC0EE811ABCEEE11A5F
:1019600080ED001A1168C1F3064101EE101AB8EEBD
:10197000411A31EE001AC0EE811ABCEEE11A80ED78
:10198000011A1168C1F3066101EE101AB8EE411A8E
:1019900031EE000A80EE801ABCEEC10A80ED020A28
:1019A00030BD04E001EE901ADFED092ABAE700210C
:1019B000016041608160F3E728440258000000396B
:1019C000384402580024744A0090D0030024744C18
:1019D00020BCBE4B494930B5484C0B1D0A681C342D
:1019E00009681D68246802F00303C5F30022C1F3EF
:1019F0000551C4F3CC04002914FB02F200EE102AB6
:101A0000F8EE400A75D03F4A9FED3D1AB7EE000A46
:101A10006BB1DFED3D1A012B01D0022B64D002EE39
:101A2000101A1168F8EE422A81EEA22A21E0334C06
:101A3000283C23689B0612D5344B246801EE901A8B
:101A40001168C4F3C104F8EE612AE34001EE903A54
:101A5000C1F30801F8EE611A81EEA22A0BE001EE53
:101A6000901ADFED2B2A00BFF8EE611A116882EEA2
:101A7000A12AC1F3080101EE901A1168F8EE611A6B
:101A800040EE811A71EE800A62EE200AC1F346210F
:101A900001EE101AB8EE411A31EE001AC0EE811AAA
:101AA000BCEEE11A80ED001A1168C1F3064101EEA7
:101AB000101AB8EE411A31EE001AC0EE811ABCEECF
:101AC000E11A80ED011A1168C1F3066101EE101AE6
:101AD000B8EE411A31EE000A80EE801ABCEEC10A5F
:101AE00080ED020A30BD04E001EE901ADFED092A14
:101AF000BAE70021016041608160F3E728440258A1
:101B000000000039404402580024744A0090D00379
:101B10000024744C20BCBE4B2DE9FE4F0546DFF877
:101B2000E48350F8081B0024F64FC943019005F1E7
:101B30002800264608F12408009008011DD4A86E4C
:101B400050B1B0F5801F0CD0B0F5001F0ED0B0F52D
:101B5000401F1ED001240FE0386840F40030386088
:101B600017E00198022101F0ADFE03E00098022188
:101B700001F038FF04000CD026462888C043C00579
:101B800023D4A86D05281ED2DFE800F00C11161B27
:101B90001B00AA6ED8F8001021F440111143C8F8B8
:101BA0000010EAE7386840F40030386009E0019836
:101BB000002101F087FE03E00098002101F012FFF0
:101BC000044674B100E0012426462888C0438005FD
:101BD00028D4E86D80281ED00CDC90B140280ED1AE
:101BE00014E0AA6DD8F8001021F007011143C8F8DD
:101BF0000010EAE7C02813D0B0F5807F10D0012490
:101C00000FE0386840F40030386009E001980021A6
:101C100001F058FE03E00098002101F0E3FE0446C5
:101C20009CB126462888DFF8DC92C04309F12C09D4
:101C300040052CD4D5F8A800B0F5800F20D00DDCDD
:101C4000A0B1B0F5001F0FD115E0EA6DD8F8001073
:101C500021F4E0711143C8F80010E3E7B0F5C00FBC
:101C600013D0B0F5000F10D001240FE0386840F415
:101C70000030386009E00198002101F023FE03E004
:101C80000098002101F0AEFE04467CB1264628886B
:101C9000C04300052DD4D5F8AC00B0F1007F21D0B1
:101CA0000EDCA8B1B0F1807F10D116E0D5F8A820E5
:101CB000D9F8001021F460011143C9F80010E6E7DB
:101CC000B0F1407F13D0B0F1806F10D001240FE04D
:101CD000386840F40030386009E00198002101F0D4
:101CE000F1FD03E00098002101F07CFE044674B190
:101CF00026462868C04380011FD4E86CD8B110285C
:101D00000FD0202812D0302815D0012414E0D5F8A7
:101D1000AC20D9F8001021F0E0611143C9F800109F
:101D2000E7E7386840F40030386004E001980221A9
:101D300001F0C8FD044674B126462888C043C0049B
:101D40002BD4286EB0F5005F20D00DDCA0B1B0F52B
:101D5000805F0FD115E06B48EA6C2030016821F0FC
:101D6000300111430160E8E7B0F5405F13D0B0F5F2
:101D7000804F10D001240FE0386840F40030386004
:101D800009E00198002101F09DFD03E00098002189
:101D900001F028FE04468CB126462888C043800402
:101DA00029D4686EB0F5403F23D010DC08B3B0F5FD
:101DB000803F14D0B0F5003F0FD115E02A6ED8F85F
:101DC000001021F4E0411143C8F80010E5E7B0F538
:101DD000802F0ED0B0F5A02F0BD001240AE001987F
:101DE000012101F06FFD03E00098012101F0FAFDEF
:101DF000044694B126462888C04340042AD4D5F826
:101E0000B000B0F1405F23D010DC08B3B0F1805FC8
:101E100014D0B0F1005F0FD115E06A6ED8F8001051
:101E200021F4E0211143C8F80010E4E7B0F1804F3D
:101E30000ED0B0F1A04F0BD001240AE0019801218F
:101E400001F040FD03E00098012101F0CBFD0446C4
:101E500074B126462888C04300041FD4286FD8B127
:101E6000B0F1805F0ED0B0F1005F10D0012414E01B
:101E7000D5F8B020D9F8001021F0E0411143C9F89D
:101E80000010E7E7386840F40030386004E001985B
:101E9000012101F017FD044674B126462868C043AD
:101EA000C0011ED4A86CD0B101280ED0022811D0D8
:101EB000032814D0012413E02A6FD8F8001021F071
:101EC00040511143C8F80010E8E7386840F400308A
:101ED000386004E00198022101F0F4FC0446ACB142
:101EE00026462868DFF81CB0C043ABF11C0B40024B
:101EF00052D40548016841F480710160FFF76EFB20
:101F0000824611E02C44025800480258FA48AA6C54
:101F1000016821F0030111430160E2E7FFF75EFB76
:101F2000A0EB0A00642835D8F4480068C005F5D550
:101F30008CBBDFF8C4A3B5F8B4100AF1240ADAF8B0
:101F4000000001F4407100F44070884211D0DAF8CA
:101F50000010DAF8002021F4407142F48032CAF80F
:101F60000020DAF8002022F48032CAF80020CAF8F3
:101F70000010D5F8B400B0F5807F1AD1FFF72EFB22
:101F8000029012E0FFF72AFB0299411A41F28830D1
:101F900081420AD9032426462878DFF85CA3C0438F
:101FA0000AF1080AC00721D03CE0DAF800008007F7
:101FB000E8D5D5F8B410C1F30120032858460DD058
:101FC000016821F47C510160B5F8B420DAF8001002
:101FD000C2F30B021143CAF80010DDE7C84A0368D8
:101FE00002EA111223F47C511143ECE7E86F182840
:101FF00016D005DCA0B1082808D0102804D10AE0CA
:1020000020280DD028280BD001240AE001980121B6
:1020100001F058FC03E00098012101F0E3FC0446C4
:1020200064B126462878C04380071ED4A86F0628CE
:1020300019D2DFE800F0160C11161616EA6FDAF85E
:10204000001021F038011143CAF80010EAE70198A6
:10205000012101F037FC03E00098012101F0C2FCEE
:1020600004467CB100E0012426462878C04340079E
:102070001FD4D5F89400062819D2DFE800F0160C1A
:1020800011161616AA6FDAF8001021F00701114395
:10209000CAF80010E9E70198012101F013FC03E000
:1020A0000098012101F09EFC0446A4B100E0012447
:1020B00026462878C04380062BD4D5F89000B0F18E
:1020C000405F24D011DC10B3B0F1805F15D0B0F1C7
:1020D000005F10D116E0D5F89420D9F8001021F057
:1020E00007011143C9F80010E3E7B0F1804F0ED0AB
:1020F000B0F1A04F0BD001240AE00198002101F0BB
:10210000E1FB03E00098022101F06CFC044694B16D
:1021100026462878C04340062BD4D5F89C00B0F55D
:10212000406F24D011DC10B3B0F5806F15D0B0F53E
:10213000006F10D116E0D5F89020DAF8001021F0E9
:10214000E0411143CAF80010E3E7B0F5805F0ED01C
:10215000B0F5A05F0BD001240AE00198002101F046
:10216000B1FB03E00098022101F03CFC044694B16D
:1021700026462878C04300062BD4D5F8A000B0F539
:10218000C04F24D011DC10B3B0F5005F15D0B0F50E
:10219000804F10D116E0D5F89C20D9F8001021F41A
:1021A000E0511143C9F80010E3E7B0F5004F0ED03D
:1021B000B0F5204F0BD001240AE00198002101F076
:1021C00081FB03E00098022101F00CFC044654B1AD
:1021D00026462878C04300071ED4D5F88400B0F501
:1021E000805F0AD00FE0D5F8A020D9F8001021F4C4
:1021F00060411143C9F80010EBE70098022101F09B
:10220000F1FB00B10126D5F88420DAF8001021F4A2
:1022100040511143CAF800102878C043C00613D4B7
:10222000D5F89800B0F5807F05D10098022101F023
:10223000D9FB00B10126D5F89820D9F8001021F477
:1022400040711143C9F800102868C043000316D438
:10225000D5F8A40038B1B0F5803F09D0B0F5003F03
:102260000BD001240AE00198002101F02BFB03E0D0
:102270000098022101F0B6FB04468CB1264628687E
:10228000C043400322D4D5F88800B0F5801F11D098
:10229000B0F5001F13D0B0F5401F15D0012414E095
:1022A000D5F8A420D9F8001021F440311143C9F821
:1022B0000010E4E7386840F40030386004E000982B
:1022C000012101F08FFB04465CB126462868C0431B
:1022D000C00323D4286DA8B1B0F5803F17D00124E6
:1022E0001BE0D5F88820DAF8001021F440111143E2
:1022F000CAF80010EAE700004C44025800480258AF
:10230000CFFFFF00386840F40030386004E00198E7
:10231000022101F0D7FA0446E4B126462868C043FA
:10232000800005D40098022101F05CFB00B1012679
:102330002868C04380031BD4D5F88000B0B1B0F545
:10234000807F0FD0B0F5007F10D0B0F5407F0DD06A
:1023500001240CE05A482A6D016821F480311143B0
:102360000160DBE7386840F400303860ECB32646A3
:102370002868C043C00207D46A6FD8F8001021F063
:1023800000411143C8F800102868C043C00008D4B9
:10239000D5F8B820DBF8001021F480411143CBF8C8
:1023A00000102868C043800207D4EA6ED8F80010F5
:1023B00021F080711143C8F800102868C043400024
:1023C0000CD4DBF8001021F40041CBF80010DBF84E
:1023D0000010D5F8BC201143CBF800102868C0438A
:1023E00008D437486A6D016800E018E021F04051D8
:1023F000114301602868C043000208D4D5F88C203E
:10240000DAF8001021F440011143CAF800102879CD
:102410000024C04300F0010020430AD00FE0D5F8AB
:102420008020DAF8001021F440711143CAF800103E
:102430009EE70198002101F045FA00B1064628798F
:10244000C04300F00200204305D10198012101F0B2
:1024500039FA00B106462879C04300F00400204351
:1024600005D10198022101F02DFA00B10646287924
:10247000C04300F00800204305D10098002101F07E
:10248000B1FA00B106462879C04300F0100020439D
:1024900005D10098012101F0A5FA00B1064628797E
:1024A000C04300F02000044304D10098022101F051
:1024B00099FA00B916B10120BDE8FE8F0020FBE7B4
:1024C0004C4402582DE9F05F04000F467ED0DFF83F
:1024D0003882D8F8000000F00F00B8420CD2D8F8CB
:1024E000001021F00F013943C8F80010D8F800009F
:1024F00000F00F00B84269D12078844D40070AD51A
:102500002069296801F07001884204D9296821F006
:1025100070010143296020787C4E361D00070AD5E2
:102520006069316801F07001884204D9316821F096
:102530007001014331602078C0060AD5A069316876
:1025400001F4E061884204D9316821F4E06101437B
:1025500031602078DFF8B4B180060BF1080B0CD5A0
:10256000E1695846DBF8002002F07002914204D97C
:10257000026822F070020A430260207880070AD5C0
:10258000E068296801F00F01884204D9296821F028
:102590000F01014329602078C0073ED05B49A26843
:1025A0002868183920F47060104328606068022899
:1025B00018D0032819D00968012819D04907002923
:1025C0004ADADFF848A1AAF1080A00E044E0DAF8A4
:1025D000002022F007020243CAF80020FEF7FEFFA7
:1025E000814612E009688903E9E709688901E6E79D
:1025F000C905E4E7FEF7F2FFA0EB090141F28830DC
:10260000814202D90320BDE8F09F6168DAF800003A
:1026100000F03800B0EBC10FECD1207880070AD56C
:10262000E068296801F00F01884204D2296821F08E
:102630000F0101432960D8F80010404601F00F0156
:10264000B9420BD9016821F00F01394301600068DC
:1026500000F00F00B84201D00120D4E720784007F5
:102660000AD52069296801F07001884204D22968DE
:1026700021F0700101432960207800070AD56069C4
:10268000316801F07001884204D2316821F0700194
:10269000014331602078C0060AD5A069316801F491
:1026A000E061884204D2316821F4E0610143316085
:1026B000207880060CD5E1695846DBF8002002F04E
:1026C0007002914204D2026822F070020A43026052
:1026D00000F09AF80E492A682B68C2F3032203F02F
:1026E0000F038A5CC95C02F01F0201F01F01D04099
:1026F000084A20FA01F1116007490860074800689C
:10270000BDE8F05FFEF7A6BF002000521844025853
:10271000146600081C000024180000241000002487
:1027200070B5144C3F220260124A24680832131D0F
:10273000114D04F00704446016681C1D06F4706611
:102740008660166806F00F06C660126802F0700216
:1027500002611A6802F0700242611A6802F4E062D3
:102760008261226802F07002C261286800F00F00E6
:10277000086070BD104402580020005230B500F0CF
:1027800043F80B4A0B490C4B15681468C5F3032238
:1027900004F00F048A5C095D02F01F0201F01F01C2
:1027A000D040064A20FA01F119601060084630BD99
:1027B00018440258146600081C0000241800002465
:1027C00000B5FFF7DBFF05490968054AC1F30211AF
:1027D000515C01F01F01C84000BD00001C440258BC
:1027E0001466000800B5FFF7C9FF05490968054AE6
:1027F000C1F30221515C01F01F01C84000BD00007F
:102800001C44025814660008454970B545480968DB
:10281000434B103B11F0380208D00111082A03D0B5
:10282000102A0BD0182A0BD0084670BD19688906EB
:10283000FBD51968C1F3C101C84070BD3A4870BDED
:102840003749374D18310C1D24350A680968266848
:102850002D6802F0030406F00102C1F30511C5F36F
:10286000CC0515FB02F200EE102AB8EE400AE9B3DF
:102870002F4ADFED2E0AB7EE001A6CB1DFED2D1AEC
:10288000012C01D0022C43D002EE101A1068F8EE91
:10289000422A81EEA22A1EE01C68A40611D51B68FC
:1028A00001EE901A1168C3F3C103F8EE612AD84013
:1028B00001EE900AC1F30800F8EE611A81EEA22A37
:1028C0000BE001EE901ADFED1C2A00BFF8EE611A52
:1028D000106882EEA12AC0F3080001EE900AF8EE1B
:1028E000611A40EE201A31EE810A00E015E022EE76
:1028F000000A1068C0F34620401C00EE900AF8EE73
:10290000600A80EE201ABCEEC10A10EE100A70BDFB
:1029100001EE901ADFED092AD8E7002070BD000013
:10292000104402580090D00340787D010000003927
:10293000304402580024744A0024744C20BCBE4B1E
:102940002DE9F05F04007DD0FF4F2078FE4D183751
:10295000DFF8F493103DC00748D0D9F8000039687B
:1029600000F03800102815D0182803D101F003001A
:1029700002280FD06068B0F5803F12D010B1B0F5DA
:10298000A02F18D0286820F480302860286820F410
:10299000802009E02868800328D560680028D2D00C
:1029A00024E0286840F480302860606888B1FEF731
:1029B00015FE064609E0286840F480202860F0E70C
:1029C000FEF70CFE801B64286FD828688003F7D5BB
:1029D0000CE0FEF703FE064605E000BFFEF7FEFD35
:1029E000801B6428F0D828688003F7D4207841F24F
:1029F0000308D54E0C3E800769D5D9F80000396828
:102A000010F038000ED0182801D188070AD0E068ED
:102A100090B3296821F0190101432960FEF7DEFD1A
:102A2000824631E02868400702D5E06800288AD055
:102A3000E168286820F0190008432860FEF7CEFD01
:102A4000824607E0DFE000BFFEF7C8FDA0EB0A000A
:102A50000228B9D828684007F6D500BFFEF7B8FDB0
:102A600040451BD82069402812D0316821F47C31C0
:102A700041EA003030602AE018E000BFFEF7AEFD0A
:102A8000A0EB0A0002289FD828684007F6D5E5E7A2
:102A9000306820F47C3040F40030EBE7207C316873
:102AA00021F0FE4141EA0060E4E70DE1286820F0F2
:102AB00001002860FEF792FD824605E0FEF78EFDDC
:102AC000A0EB0A0002288DD828684007F6D42078A9
:102AD000C0065DD5D9F80000DFF86CB2396800F0A7
:102AE0003800ABF1040B082810D0182803D101F0EE
:102AF000030001280AD0E0690028286838D040F097
:102B000080002860FEF76AFD824623E02868C00541
:102B100023D5E069802876D11FE0206A202821D0C3
:102B2000316821F0F84141EA8060306030E000BF58
:102B300094F82010DBF8002022F07C5242EA016178
:102B4000CBF8001024E000BFFEF748FDA0EB0A0020
:102B5000022898D82868C005F6D5FEF739FD40450B
:102B6000E6D8DAE7306820F0F84040F08040DCE753
:102B700020F080002860FEF731FD064605E000BF2A
:102B8000FEF72CFD801B02289DD82868C005F7D4CD
:102B90002078000729D56C48616964300029804697
:102BA000016811D041F001010160FEF717FD0646F2
:102BB00005E000BFFEF712FD801B0228C9D8D8F837
:102BC00000008007F6D510E021F001010160FEF75A
:102BD00005FD064605E000BFFEF700FD801B02284C
:102BE00072D8D8F800008007F6D42078800623D564
:102BF000A0690028286810D040F480502860FEF7B3
:102C0000EDFC064605E036E1FEF7E8FC801B0228F5
:102C10005AD828688004F7D50EE020F48050286048
:102C2000FEF7DCFC064604E0FEF7D8FC801B022819
:102C30004AD828688004F7D4207840074FD5DFF8B9
:102C40000C81D8F8001041F48071C8F80010FEF72C
:102C5000C5FC064605E000BFFEF7C0FC801B6428EB
:102C600032D8D8F80000C005F6D5374EA0686036D7
:102C700001280AD008B1052813D0306820F00100DF
:102C80003060306820F0040002E0306840F001005D
:102C90003060A06841F2883A90B1FEF79FFC804610
:102CA0000AE0306840F004003060EEE7FEF796FC82
:102CB000A0EB0801514507D830688007F6D50EE033
:102CC000FEF78CFC804607E084E000BFFEF786FC40
:102CD000A0EB080151457DD830688007F6D4606AC2
:102CE000B0B3DFF86480D9F8001008F120084FF67F
:102CF000F87B08F10409C1F3C2010329A8F1040A11
:102D000069D00228286820F08070286003D0FEF780
:102D100065FC044684E0FEF761FC064605E000BF62
:102D2000FEF75CFC801B022877D828688001F7D466
:102D3000E26A40F2F331386854F8283F884340EAA9
:102D400002101843386004E010440258004802584A
:102D5000B5E0217B434622894FF4FE0C208A4FF0D8
:102D6000FE474902267D521E401EA1F50071C2F3A6
:102D700008088AB2761E0CEA004042EA08020243C2
:102D8000504607EA06610A431A60DAF8002022F08A
:102D90000102CAF80020D9F80020266A22EA0B02B4
:102DA00042EAC602C9F80020DAF80010A26921F050
:102DB0000C011143CAF800100168E26921F0020118
:102DC00011430160016841F480310160016841F400
:102DD000003101E021E027E00160016841F4802139
:102DE0000160016841F001010160286840F08070D5
:102DF0002860FEF7F3FB044605E000BFFEF7EEFB9C
:102E0000001B022809D828688001F7D557E000BFC9
:102E1000FEF7E4FB001B022802D90320BDE8F09F67
:102E200028688001F4D44AE039680128D8F8000005
:102E300021D0A26A01F0030393421CD1E26AC1F3DC
:102E400005118A4217D1216BC0F30802491E8A423C
:102E500011D1616BC0F34622491E91420BD1A16B87
:102E6000C0F30642491E914205D1E16BC0F30660F2
:102E7000491E814201D00120D0E7A16C4E46D9F80D
:102E80000000C0F3CC00814219D0DAF800005546AA
:102E900020F00100CAF80000FEF7A0FB4FEA00078F
:102EA000FEF79CFBB842FBD0A26C306820EA0B0016
:102EB00040EAC2003060286840F00100286000202D
:102EC000ACE7000003490A6822F4600202430A608A
:102ED000704700000404005870477047704710B5F1
:102EE000040003D094F83D0010B107E0012010BDAC
:102EF000002084F83C00204600F022F8022084F8EC
:102F00003D002068211D01F0BDFA012084F8480031
:102F100084F83E0084F83F0084F8400084F84100C3
:102F200084F8420084F8430084F8440084F84500A3
:102F300084F8460084F8470084F83D00002010BD66
:102F40007047000090F83D10012901D00120704722
:102F5000174A022180F83D100168CB6843F0010355
:102F6000CB600068904214D0B0F1804F11D011496D
:102F700088420ED0104988420BD01049884208D0B0
:102F80000F49884205D00F49884202D00E49884235
:102F900007D181680D4A1140062906D0B1F5803F5E
:102FA00003D0016841F0010101600020704700007A
:102FB000000001400004004000080040000C0040F8
:102FC00000040140001800400040014007000100DB
:102FD00070472DE9F041044600680027C66805697E
:102FE000A90713D5B10711D5FA1E02610121217776
:102FF000206880698007204602D0FFF7E9FF04E0DF
:1030000000F08BF8204600F089F82777680716D57E
:10301000700714D5226802206FF004011161207737
:103020002068806910F4407F204602D0FFF7D0FF6F
:1030300004E000F072F8204600F070F827772807C7
:1030400015D5300713D5226804206FF008011161EF
:1030500020772068C0698007204602D0FFF7B8FFBC
:1030600004E000F05AF8204600F058F82777E80608
:1030700016D5F00614D5226808206FF010011161F2
:1030800020772068C06910F4407F204602D0FFF707
:103090009FFF04E000F041F8204600F03FF827775A
:1030A000E80708D0F00706D021686FF0010008613A
:1030B000204600F035F8280601D4A80408D53006CB
:1030C00006D521686FF4025008612046FFF705FF1E
:1030D000E80508D5300606D521686FF480700861D0
:1030E0002046FFF7F9FE680608D5700606D5216868
:1030F0006FF040000861204600F01CF8A8060AD5D1
:10310000B00608D521686FF0200008612046BDE8B0
:10311000F041FFF7E3BEBDE8F08170477047000063
:1031200000680349884201D1FEF75EBA704700008B
:1031300000000140704730B590F88410012918D084
:10314000012280F884202421C0F888100022202445
:1031500001680B680D6823F0005325F001050D6030
:10316000426601680B60C0F8884080F884201046F1
:1031700030BD022030BD7047704770B5044690F8EE
:10318000840001281DD0012284F884202420C4F862
:10319000880020680568026822F001020260206849
:1031A000826822F060620A438260204601F0D0F912
:1031B0002268202100201560C4F8881084F884005B
:1031C00070BD022070BD70B5044690F884000128DF
:1031D0001DD0012284F884202420C4F888002068AF
:1031E0000568026822F0010202602068826822F00D
:1031F00060420A438260204601F0AAF92268202139
:1032000000201560C4F8881084F8840070BD022086
:1032100070BD7047704770472DE9F0410768002581
:10322000044640F60F030226F8693968BA68184266
:103230000AD183067ED501F0200302F0805C53EAB8
:103240000C0377D0616F7EE1D44BDFF854C3134099
:1032500001EA0C0C53EA0C0C6CD05FEAC07C0CD079
:103260005FEAC15C09D54FF0010CC7F820C0D4F863
:10327000907047F00107C4F89070870709D5D70709
:1032800007D027683E62D4F8906046F00406C4F880
:10329000906046070AD5D60708D0276804263E6204
:1032A000D4F8906046F00206C4F8906006070CD58A
:1032B00001F020061E4308D0266808233362D4F8A4
:1032C000903043F00803C4F8903003050BD54B0150
:1032D00009D526684FF400633362D4F8903043F088
:1032E0002003C4F89030D4F89030002B3DD08006F5
:1032F00009D501F0200002F08051084303D0616F2E
:1033000009B1204688472168D4F8900089684906A9
:1033100002D410F0280F2AD0204601F0F9F92068D5
:10332000806840061ED52068083050E8001F21F054
:10333000400100E021E040E80012002AF3D1D4F877
:10334000800078B197490165D4F88000FDF77CFDD5
:1033500000280AD0D4F88000016D00E02046BDE8C6
:10336000F04108472046FFF756FFBDE8F0812046B0
:10337000FFF751FFC4F89050F7E7D4F86CC0202352
:10338000BCF1010F7ED15FEAC06C7BD55FEAC16CF6
:1033900078D51020386220688068400673D5D4F84C
:1033A000802081491068884234D07F491831884292
:1033B00030D07D49303188422CD07B494831884219
:1033C00028D079496031884224D0774978318842C1
:1033D00020D07549903188421CD07349A831884269
:1033E00018D07249884215D070491831884211D0DE
:1033F0006E49303188420DD06C494831884209D03D
:103400006A496031884205D068497831884201D0E4
:103410006649903140684FF480770004000C40D03A
:10342000B4F85C1081423CD9A4F85E00D069B8427F
:103430002FD0216851E8000F20F4807041E800028D
:10344000002AF6D12068083050E8001F21F0010161
:1034500040E80012002AF5D12068083050E8001F2B
:1034600021F0400140E80012002AF5D1C4F88C3068
:10347000E566206850E8001F21F0100140E80012C6
:10348000002A01E04AE019E0F3D1D4F88000FDF70A
:103490002BFB2667B4F85C00B4F85E10401A81B2CA
:1034A00008E0B4F85C1081427FF466AFD069B8429E
:1034B000FAD126672046FFF75EFE56E7B4F85C00B7
:1034C000B4F85E10B4F85E20401A81B2002AF4D03D
:1034D0000029F2D0226852E8000F20F4907042E8F0
:1034E0000007002FF6D1324F206800F1080050E8A5
:1034F000002F02EA070240E8002CBCF1000FF3D1D4
:10350000C4F88C30E5666567226852E8000F20F049
:10351000100042E80003002BF6D1CAE7C60209D525
:10352000560207D54FF4801038622046BDE8F041BE
:10353000FFF770BE06060AD501F0800602F400020D
:10354000164304D0A16F00297FF408AF0DE74206AF
:1035500011D54A060FD52046016851E8002F22F008
:10356000400241E80024002CF6D1C0F8883085677D
:1035700000F0A2F8F9E6020206D54A0004D520467A
:10358000BDE8F041FFF745BEC00196D5002994DAA9
:103590002046BDE8F041FFF7EFBD0000010000103C
:1035A00020010004074700081000024010040240F8
:1035B000FEFFFFEF10B5040003D0D4F8880010B16F
:1035C00007E0012010BD002084F88400204600F0B0
:1035D00027F82420C4F888002068016821F0010140
:1035E0000160A06A10B1204600F0D4FF204601F02F
:1035F000B9F80128E6D02068416821F49041416083
:103600002068816821F02A0181602068016841F00A
:10361000010101602046BDE8104001F01FB8000024
:1036200010B5B6B00446142130A8FDF71BF8C02130
:103630006846FDF717F81D492068884234D10020FC
:10364000022103221E92CDE900106846FEF764FABB
:1036500008B1FDF739FA1648016841F4802101608C
:10366000006800F48020359011480838016841F066
:103670000201016000680723022200F00200359079
:1036800000204FF44061309130A9CDE93120CDE9DF
:1036900033030848FDF77CFE002205212720FEF7B2
:1036A00089F82720FEF778F836B010BD00480040B2
:1036B000E8440258000402587047FEE710B54FF086
:1036C0000004EFF3058048B902F08EFD012806D012
:1036D000EFF3108010B9EFF3118000B10124204600
:1036E00010BD000011490022114870B50E4B802416
:1036F0000B60E1250270012644704FF4C0638570B1
:10370000C2700271427148600A480E72C8600A486D
:10371000C1E904030846FDF7A5FC002803D0BDE875
:103720007040FDF7D1B970BD00800240B4000024A4
:10373000040000248000003000000030044A002112
:10374000044810B501F036FC0349086010BD0000C4
:10375000C8650008AF420008000000242DE9F041D0
:1037600086B014216846FCF77DFF3648016841F0B9
:1037700010010160016801F010010591016841F438
:1037800080710160016801F480710591016841F068
:1037900004010160016801F004010591016841F034
:1037A00080010160016801F080010591016841F02C
:1037B00001010160016801F001010591016841F01A
:1037C00002010160016801F002010591016841F008
:1037D00040010160006800221B4F602100F04000A2
:1037E00005903846FDF7EEFEDFF860804FF4805616
:1037F000002231464046FDF7E5FE002469460125DA
:1038000060200090CDE9015438460394FDF7C0FDD7
:103810004FF4506069468DE831000D48FDF7B8FD62
:10382000680369468DE831000A48FDF7B1FD00964E
:103830006946CDE9015440460394FDF7A9FD06B061
:10384000BDE8F081E044025800100258000402581C
:1038500000200258000802581848002110B5164CE4
:103860000C224FF4E1330460C0E90131C160C0E9CA
:1038700004128161C161016241628162FFF79AFEB7
:1038800008B1FDF721F90D480021FFF79CFC08B1B4
:10389000FDF71AF909480021FFF76FFC08B1FDF7A1
:1038A00013F90648FFF747FC002803D0BDE8104095
:1038B000FDF70AB910BD0000004800406401002473
:1038C000FEE7FEE72DE9F047454D044689464FF0F7
:1038D000000A2868C04380070AD0414E283E30685D
:1038E00020F080603060FDF779FE0746B04608E0C2
:1038F0000120BDE8F08700BFFDF770FEC01B022865
:1039000067D8D8F800000001F6D4206829684FF481
:10391000FE0721F47C313E0241EA00302860207A23
:10392000A389B4F804C040022D4D2D495B1E227CB2
:10393000ACF1010C1035091DA0F5007080B2521ECB
:10394000CCF3080C07EA034340EA0C00184306EAEC
:103950000262104328600868626920F0C0001043CA
:1039600008600A68A06922F0200202430A60281D4C
:103970000A6822F010020A6002684FF6F873E469E0
:103980009A4342EAC40202600868B9F1000F40F0AD
:1039900010020A6011D00868B9F1010F11D040F48B
:1039A00000100860D8F80000444640F08060C8F875
:1039B0000000FDF713FE05460DE0086840F4002006
:1039C000EFE740F48010ECE7FDF708FE401B02280B
:1039D00001D903208DE720680001F5D5504688E71E
:1039E000284402582DE9F047454D044689464FF0DA
:1039F000000A2868C04380070AD0414E283E30683C
:103A000020F080503060FDF7E9FD0746B04608E041
:103A10000120BDE8F08700BFFDF7E0FDC01B0228D4
:103A200067D8D8F800008000F6D4208829684FF4C1
:103A3000FE0721F07C713E0241EA00502860207AA6
:103A4000A389B4F804C040022D4D2D495B1E227C91
:103A5000ACF1010C1835091DA0F5007080B2521EA2
:103A6000CCF3080C07EA034340EA0C00184306EACB
:103A70000262104328600868626920F440601043C5
:103A800008600A68A06922F4007202430A60281DD7
:103A90000A6822F480720A6002684FF6F873E469DB
:103AA0009A4342EAC40202600868B9F1000F40F488
:103AB00080720A6011D00868B9F1010F11D040F08E
:103AC00080700860D8F80000444640F08050C8F884
:103AD0000000FDF783FD05460DE0086840F4800016
:103AE000EFE740F40000ECE7FDF778FD401B02280B
:103AF00001D903208DE720688000F5D5504688E77E
:103B0000284402582DE9F04705461C4816460C4645
:103B10000078532801D001F04DF8184905EB450015
:103B2000A04601EBC0070025D7E91B9460374C4540
:103B300011D9B868051BB54200D3354678682A46C6
:103B400001194046FCF71FFDB868761B2C44A042C3
:103B5000A84400D10024A9EB0400B04200D20646DC
:103B60003EB17868324601194046FCF70CFD3544F9
:103B7000344405B13C612846BDE8F0872450002458
:103B80002DE9F04100EB40000F461849164601EBC5
:103B9000C004A16A656AE0691834A942284417D8AC
:103BA000A268521B531EB34201D3324614E019449B
:103BB000B14219D315463946FCF7E5FC761B2A4677
:103BC00004D0B91860683246FCF7DDFCE66008E016
:103BD000491B491EB14207D33946FCF7D4FCA8194A
:103BE000E0600120BDE8F0810020FBE724500024C4
:103BF00070B5EFF31185202080F311881A48A0F1E9
:103C00002F040146626804E042F08003D20901F803
:103C1000013B7F2AF8D801F8012BA26805E000BF1C
:103C200042F08003D20901F8013B7F2AF8D801F85D
:103C3000012B226905E000BF42F08003D20901F8A0
:103C4000013B7F2AF8D80A7000224A701822891C8A
:103C500001F046F8E8B280F31188606A002802D0CB
:103C6000BDE87040004770BD474F002410B5EFF32A
:103C70001184202080F3118804481122014601F0AC
:103C80002FF8E0B280F3118810BD0000474F0024E8
:103C9000014610B5EFF31184202080F311880B4802
:103CA000A0F12F0212698A1A014604E042F0800353
:103CB000D20901F8013B7F2AF8D801F8012B08222C
:103CC00001F00EF8E0B280F3118810BD474F0024D8
:103CD000014610B5EFF31184202080F311880B48C2
:103CE000A0F12F0212698A1A014604E042F0800313
:103CF000D20901F8013B7F2AF8D801F8012B0422F0
:103D000000F0EEFFE0B280F3118810BD474F0024B1
:103D1000014610B5EFF31184202080F311880B4881
:103D2000A0F12F0212698A1A014604E042F08003D2
:103D3000D20901F8013B7F2AF8D801F8012B0622AD
:103D400000F0CEFFE0B280F3118810BD474F002491
:103D50000A4810B5006A48B1006838B180470A4681
:103D60000146BDE810400D2000F02AB80448416823
:103D70000C20BDE8104000F005B80000184F0024EA
:103D8000001000E070B50246EFF31184202080F3AC
:103D900011880A48034604E041F08005C90900F88B
:103DA000015B7F29F8D800F8011B0146184600F096
:103DB00097FFE0B280F3118870BD0000474F0024E8
:103DC00070B50546EFF31184202080F311880F4869
:103DD000034604E041F08006C90900F8016B7F2921
:103DE000F8D800BF7F2A00F8011B03D942F08001F8
:103DF000D209F7E700F8012B01462A46184600F0E1
:103E00006FFFE0B280F3118870BD0000474F0024BF
:103E10002DE9F0410646EFF31184202080F311884C
:103E2000154D284605E000BF41F08007C90900F89C
:103E3000017B7F29F8D800BF7F2A00F8011B03D936
:103E400042F08001D209F7E700F8012B05E000BF3E
:103E500043F08001DB0900F8011B7F2BF8D800F844
:103E6000013B01463246284600F03AFFE0B280F3BB
:103E70001188BDE8F0810000474F00242DE9F04192
:103E800017460246EFF31184202080F31188069E26
:103E9000194D284605E000BF41F0800CC90900F823
:103EA00001CB7F29F8D800BF7F2F00F8011B03D971
:103EB00047F08001FF09F7E700F8017B05E000BF4C
:103EC00043F08001DB0900F8011B7F2BF8D800F8D4
:103ED000013B04E046F08001F60900F8011B7F2E4B
:103EE000F8D800F8016B0146284600F0F9FEE0B270
:103EF00080F31188BDE8F081474F0024024610B5D9
:103F0000EFF31184202080F311880448014600F06B
:103F1000E7FEE0B280F3118810BD0000474F002497
:103F200001461F4870B54468002C38D0002003E0DB
:103F30002469002C33D0401C8842F9D3EFF311865A
:103F4000202080F31188174D284604E041F08002BC
:103F5000C90900F8012B7F29F8D800F8011BA168D6
:103F600005E000BF41F08002C90900F8012B7F295C
:103F7000F8D800F8011B2168802200F04DFE1622BF
:103F80000146284600F0ACFEF0B280F31188002C08
:103F900005D0E068002802D0BDE87040004770BD41
:103FA000A0000024474F0024054810B54468002CA9
:103FB00004D0E06800B180472469F8E710BD000034
:103FC000A000002410B5EFF31184202080F31188A5
:103FD0000B4A0A480146127805E000BF42F0800310
:103FE000D20901F8013B7F2AF8D801F8012B1B22E6
:103FF00000F076FEE0B280F3118810BD474F002438
:10400000A00000242DE9F0410546EFF311862020A1
:1040100080F31188304C2968A4F12F0720463A69B3
:10402000891A04E041F08002C90900F8012B7F29B8
:10403000F8D800F8011BA96805E000BF41F0800234
:10404000C90900F8012B7F29F8D800F8011B69681D
:10405000202200F0E1FD09220146204600F040FE4A
:10406000286821463A69801A05E000BF40F08002C6
:10407000C00901F8012B7F28F8D801F8010BE86886
:1040800005E000BF40F08002C00901F8012B7F2845
:10409000F8D801F8010B286905E000BF40F0800264
:1040A000C00901F8012B7F28F8D801F8010B6869D5
:1040B00005E000BF40F08002C00901F8012B7F2815
:1040C000F8D801F8010B1522204600F009FEF0B2E5
:1040D00080F31188BDE8F081474F00240448006A4E
:1040E000002803D04068002800D000477047000037
:1040F000184F002401490969401A7047184F0024DD
:1041000070B5284C01202070EFF31185202686F32E
:10411000118860780A222449FFF732FDE8B280F363
:1041200011880A20FFF7EAFEEFF3118586F3118864
:1041300004F12F006268014605E000BF42F08003F1
:10414000D20901F8013B7F2AF8D801F8012BA268B7
:1041500005E000BF42F08003D20901F8013B7F2A4D
:10416000F8D801F8012B226905E000BF42F0800376
:10417000D20901F8013B7F2AF8D80A7000224A7060
:104180001822891C00F0ACFDE8B280F31188606A47
:1041900000B18047FFF7DCFDFFF7A0FFBDE87040EE
:1041A000FFF710BF184F00242466000870B5EFF326
:1041B0001184202080F311880748A0F12F05297869
:1041C00029B10B22014600F08BFD00202870E0B2DF
:1041D00080F3118870BD0000474F002470B5EFF3E5
:1041E0001185202181F31188094C80220146204647
:1041F00000F012FD0121017000214170811C204658
:104200001A2200F06DFDE8B280F3118870BD000045
:10421000474F00242DE9F8430C461E4614A11746CB
:10422000089D052280462046FCF781F900281CD015
:10423000114A1068082804D3BDE8F8430F48FFF777
:10424000CDBF0F4900EB8003401C41F8238001EBF8
:1042500083013346C1E90147C1E9036510603A466D
:1042600021464046009500F00DF8BDE8F8830000B7
:1042700049444C4500000000B00000246C66000872
:10428000DC5400242DE9F04186B01F4616460D4649
:1042900018210446DDF830806846FCF7E3F98DE824
:1042A000F0016846FFF7AEFE06B0BDE8F0810120E0
:1042B00000F038FEFBE74FF0E02010B5006901F098
:1042C00093FF012803D0BDE8104001F095BD10BD5B
:1042D000F0B59DB04C216846FCF7C4F9202113A825
:1042E000FCF7C0F90220FDF797FA2348002523497F
:1042F000026842F44042026002680A6842F0010229
:104300000A60096801F001011B9101688904FCD56C
:104310000DF1280E4FF0C00C0523022009908EE805
:104320000910C1030D9040240F9008270E9003261A
:104330001295CDE9107509226846CDE90061CDE9F5
:104340000324FEF7FDFA08B172B6FEE74FF4806170
:1043500015953F201A94CDE91674CDE91841CDE9A1
:104360001306042113A8FEF7ADF8002801D072B699
:10437000FEE71DB0F0BD0000184802582C0400589C
:104380003348F0B5334A016841F4700101601068A8
:1043900000F00F00072804D2106820F00F00C01DA5
:1043A00010602D4900202C4C10340B682B4D43F02D
:1043B00001030B6020600B682B400B60136803F057
:1043C0000F03072B04D9136823F00F03DB1D1360C1
:1043D000214C234A1834234B261D371D20601E4CC8
:1043E000214D28343060261D3860371D23603B1D69
:1043F00035601C1D3A60251D2E1D1860331D22607E
:104400002860326018600A68134B184C22F480222E
:1044100060330A60186020686FF30F00B0F1005F2E
:1044200003D213490120C1F808010B48D4300168B8
:10443000C9040BD4026843F2D2010E4B42F48052FD
:1044400002601960016821F480510160F0BD000034
:1044500088ED00E000200052004402587FEDF6EAAB
:1044600080020101000202020000FF010010005C56
:1044700000800051004000520148FEF7AABD000034
:10448000F80100242DE9F047294B4FF0804A294DCF
:1044900002689842284E294F294C09D0504507D030
:1044A000A84205D0B04203D0B84201D0A04205D105
:1044B000D1F804C022F070024CEA0202DFF884C096
:1044C000DFF884809842DFF884900FD050450DD0FB
:1044D000A8420BD0B04209D0B84207D0A04205D0C4
:1044E000604503D0404501D0484503D1CD6822F452
:1044F00040722A438E684D6922F08002C6620E68BF
:104500002A439842866207D0A04205D0604503D076
:10451000404501D0484501D1096901630368012183
:1045200043F00403036041610260BDE8F0870000CE
:10453000000001400004004000080040000C004062
:104540000004014000400140004401400048014097
:1045500030B5416EB9B101680D4B03F108048A68AA
:104560008968C2F34262490F5D5C615C2D01B5FB55
:10457000F1F1A0F86A10995CA25C0901B1FBF2F1BB
:10458000A0F8681030BD0121A0F86A10F8E700001B
:104590000466000890F82810090706D50168836BA7
:1045A0004A6822F400421A434A6090F82810C9076A
:1045B00006D00168C36A4A6822F400321A434A608E
:1045C00090F82810890706D50168036B4A6822F421
:1045D00080321A434A6090F82810490706D50168CE
:1045E000436B4A6822F480221A434A6090F82810EC
:1045F000C90606D50168C36B8A6822F480521A4343
:104600008A6090F82810890606D50168036C8A68CC
:1046100022F400521A438A6090F82810490611D5F6
:104620000168436C4A6822F480121A434A60416C64
:10463000B1F5801F06D10168836C4A6822F4C0027C
:104640001A434A6090F82810090606D50168C26C22
:10465000486820F400201043486070472DE9F84373
:1046600000250446C0F89050FCF7B8FF804620684B
:1046700020266FF07E470068000713D500224346CE
:1046800031042046009700F043FA58B1216851E800
:10469000000F20F0800041E80002002AF6D1C4F8A3
:1046A000886021E020680068400722D50022434648
:1046B0004FF480012046009700F02AFAC8B1206824
:1046C00050E8001F21F4907140E80012002AF6D152
:1046D0002068083050E8001F21F0010140E8001276
:1046E000002AF5D1C4F88C60032084F88450BDE81A
:1046F000F883C4F88860C4F88C60E56625670020FC
:1047000084F88450F3E710B5806BFEF784FD10BD8C
:1047100010B5026852E8001F21F4907142E80013BE
:10472000002BF6D10E4B0268083252E8001F1940E8
:1047300042E80014002CF6D1C16E012908D10268AC
:1047400052E8001F21F0100142E80013002BF6D1BF
:1047500000212022C0F88C20C166416710BD0000F6
:10476000FEFFFFEF2DE9F04304468068D84E87B086
:10477000D84B2168D4E90427D4F81CC010430A6838
:10478000002547EA0C073843324002430A6020689C
:10479000E268416821F44051114341602268A169F7
:1047A0009A4201D0206A01439768DFF82CC3CB4EB0
:1047B000CB4807EA0C070F4397602168676ACA6A0B
:1047C00022F00F023A43CA622268B2420ED1006858
:1047D00000F03800182873D047DCB8B3082879D027
:1047E00010286FD178E028287ED17BE0BD498A422D
:1047F00009D1006800F00700062875D2DFE800F054
:10480000546A6C6E7072B8498A4209D1006800F02F
:104810000700062868D2DFE800F0475D5F61636546
:10482000B2498A4209D1006800F0070006285BD22D
:10483000DFE800F03A5052545658AD498A420BD145
:10484000006800F0070006284ED200E010E0DFE824
:1048500000F02B4143454749A6498A420AD10068E6
:1048600000F03800182839D0B7DD2028BBD13CE053
:1048700001203AE0A0498A4209D1006800F007000F
:10488000062831D2DFE800F01026282A2C2E9B497A
:104890008A420BD1006800F00700062824D2DFE826
:1048A00000F003191B1D1F2100201EE09A421BD19E
:1048B0008B48001D006800F00700062814D202E0B3
:1048C0000CE007E010E0DFE800F0030507090B0D3E
:1048D00002200AE0042008E0082006E0102004E09E
:1048E000202002E0402000E080208549DFF814828B
:1048F0009A42854A4FF400434FEA21174FF00006D1
:104900004ED110281AD006DC022809D004280BD07A
:1049100008287CD10DE020283ED0402877D13DE00A
:10492000FCF7A4FF014610E06846FCF7B1FF0199CF
:104930000BE003A8FDF74EF8049906E01068800626
:1049400005D51068C0F3C100C140002970D0606A6D
:10495000676838F8102007EB4703B1FBF2F0834299
:1049600055D8B0EB073F52D8002308461946FBF74D
:1049700067FD02467808130E120243EA012110185F
:104980003A4671410023FBF75BFD604AA0F5407198
:1049900091423CD821688FE03946D8E71946D6E7DE
:1049A000D4F81CC04FF6EF799C4546D1082819D0A1
:1049B00005DC58B101280CD0042875D10DE0102871
:1049C00015D0202835D040286ED134E0FDF7F8FE10
:1049D00001E0FDF707FF014610E06846FCF758FFCD
:1049E00001990BE003A8FCF7F5FF049906E01068B5
:1049F000800604D51068C0F3C100C140C1B1636A2C
:104A0000606838F81330B1FBF3F1490000E04BE087
:104A100001EB5001B1FBF0F0A0F11001494543D882
:104A20004FF6F0732168C0F342021840104343E090
:104A300043E03946E3E71946E1E7082819D005DCE9
:104A400058B101280CD004282ED10DE0102815D023
:104A500020282BD0402827D12AE0FDF7B1FE01E025
:104A6000FDF7C0FE014610E06846FCF711FF019912
:104A70000BE003A8FCF7AEFF049906E0106880067F
:104A800004D51068C0F3C100C140B1B1636A606869
:104A900038F81330B1FBF3F101EB5001B1FBF0F04A
:104AA000A0F11001494505D9012506E03946EDE799
:104AB0001946EBE7216880B2C8600120A4F86A00BB
:104AC000A4F8680028466667A66707B0BDE8F083CB
:104AD000F369FFCF000C0058FFF4FF1100100140F4
:104AE000544402580044004000480040004C00403C
:104AF000005000400014014000780040007C00405D
:104B00000090D003EC65000800440258FFFC0F0041
:104B10002DE9F047994617460D460446089E4FF08A
:104B2000000833E0701C31D0FCF758FDA0EB090001
:104B3000B04218D8BEB120680168490726D5802D3B
:104B400024D0402D22D0C169C94309070DD40825BE
:104B500005622046FFF7DCFDC4F89050012084F880
:104B60008480BDE8F0870320FBE7C069C0430005EF
:104B70000CD421684FF4006008622046FFF7C8FD9E
:104B80002021C4F8901084F88480ECE72068C06984
:104B900035EA000004D00020B842C3D00020E0E78E
:104BA0000120F9E70148FEF737BB0000640100244B
:104BB000FEE7000070B5134CA8212046FBF752FD1C
:104BC00003212161002010A24FF480630EA56161D2
:104BD0001026A26104F1A801E1612362A062606273
:104BE000E062256601F580616166A6662067E06681
:104BF00060670849C0F10F028A5C2254401C1028EB
:104C0000F8D370BD245000245465726D696E616CD8
:104C1000000000004E66000830B539B1802A0C460D
:104C2000034600F1010008D97F2208E0002100F8C6
:104C3000011B30BD491C00F8015B521E02D30D78E8
:104C4000002DF7D1091B197030BD000038B5234C79
:104C500001226946207EFEF755FF00281CD09DF8F2
:104C60000000052825D008DC012816D0022817D01E
:104C7000032818D0042808D118E006281CD00728DB
:104C80001DD07F2808D080281CD0802804D3207E07
:104C900001226946FEF736FF38BDFFF731FA38BD0D
:104CA000FFF784FA38BDFFF753F838BDFFF716FA5F
:104CB00038BDFEF79DFF38BDFFF784F938BDFFF71B
:104CC00073F938BD207E01226946FEF71BFF0028DC
:104CD000F7D09DF80000FFF723F938BD184F0024E6
:104CE0002DE9F74FDFF838A1044615469AF8000081
:104CF000012809D0002856467BD0022804D100F0B4
:104D000095F83078012874D1202D05D20120DAF8E9
:104D10001C10A84001426CD1182DEAB20FD30198A3
:104D2000001B7F2807D9631E40F08001C00918705E
:104D300004F8021D01E004F8010D7F2D02D2611E6E
:104D40000A703BE0E8B2B5F5804F40F0800004D235
:104D5000621EA11EEB0913702FE0802343EAD511D8
:104D6000B5F5001FCAB208D221468B1EAD0B04F860
:104D7000015D1A7001F8030D20E0802141EA9531B0
:104D8000B5F1805F01F0FF0B0AD2661E2146CB1EF3
:104D90006D0D357004F802BC1A7001F8040D0DE0B9
:104DA000271F4FEA157804F8018C43EA555304F89D
:104DB000023C04F803BC611F3A700870544619485D
:104DC0004568DAF80C002A1A019804E042F08003E2
:104DD000D20900F8013B7F2AF8D800F8012B421ACB
:104DE0006078FEF7CDFE08B1E56002E02078401C57
:104DF00020709AF8181054460B4801EB410100EB63
:104E0000C100C16E006F814208D0A078002805D192
:104E10000120A070FFF71AFF0020A070BDE8FE8FF0
:104E2000184F0024001000E0245000243EB5174C19
:104E300001206A468DF80000501C616905E000BF42
:104E400041F08003C90900F8013B7F29F8D8104BD5
:104E500000F8011BE1685D68691A04E041F0800315
:104E6000C90900F8013B7F29F8D800F8011B821A14
:104E700060786946FEF784FE20B1E5602178491E1E
:104E800021703EBD6169491C61613EBD184F00241F
:104E9000001000E0090700284FEA116104DB00F16F
:104EA000E02080F80014704700F00F0000F1E020CF
:104EB00080F8141D70471FB50024009401940294DB
:104EC0000394FCF737FC01208DF80C001F218DF8AE
:104ED000081087228DF809208DF80D008DF800004C
:104EE00068468DF80A408DF80E408DF80140019417
:104EF0008DF80B408DF80F40FCF7EEFB0420FCF71B
:104F000027FCFCF779FBFFF7E3F9FEF727FCFEF738
:104F1000A3FCFEF7E7FB00F015F8FEF70FFC00F02E
:104F200029F8FEE770B50546FEF7C8FB10B16FF033
:104F3000050405E04FF0000415B1284600F0C4FD5B
:104F4000204670BD10B5FEF7B9FB10B16FF005003B
:104F500010BD01F049F9012802D10549086810B1D6
:104F60004FF0FF3010BD01220A60002010BD00008C
:104F70007400002410B5FEF7A1FB10B16FF005001E
:104F800010BD01F031F9012803D108480168012959
:104F900002D04FF0FF3010BD054A002182F8141DE9
:104FA0000221016000F00EFE002010BD74000024FC
:104FB0000BE000E02DE9FF41002514460F460646B0
:104FC0000395FEF77BFB60BB5EB34FF080024FF0B2
:104FD00018004FF000014CB3236803B11946A369D0
:104FE0001BB118465B1E382B02D22379DB0703D096
:104FF000002004B0BDE8F081636903B19A08D4F8D9
:1050000008C0BCF1000F0DD0E5685C2D19D32469F0
:105010003CB133B18DE811103B46304601F0AAF89F
:1050200003900EE0E36863B9236953B903AB92B20E
:10503000CDE900033B46304601F06CF8012800D072
:1050400003950398D5E700002DE9F0411A4C0F466F
:105050000546E6682068001D00F018FC681C15D1A4
:10506000A7B1164922684868906023688268DA60B0
:1050700022688368121D5A602268121D82602068AF
:1050800041610868401C0860BDE8F0812068354433
:10509000B5424560216805D2E06B091DBDE8F041CD
:1050A00000F02EBCA06B091D00F02AFCA06A85420E
:1050B000EAD2A562E8E700002000002434070024BB
:1050C000F8B5044600F034FC3D4D3E4FA868401C46
:1050D000A860286810B1686938B32CE02C60A86813
:1050E000012828D15FF0000606EB860007EB800060
:1050F00000F0F8FB761C382EF6D3334800F0F2FBB4
:105100003148143000F0EEFB2F48283000F0EAFB65
:105110002D483C3000F0E6FB2B48503000F0E2FB1D
:105120002948A8631430E86305E0E06A2968C96A81
:10513000814200D82C60686A00F1010068626064F6
:1051400064B12046FEF7A4FD236B04F1340120680E
:10515000C01A0090E26A2046FFF75CF82046FEF78E
:10516000D7FDE06A2969884200D9286100EB8000F8
:10517000211D07EB80004068A0608268E2608268C1
:1051800051608160E06A00EB800007EB80016161A3
:1051900057F82010491C47F8201000F0E9FB686917
:1051A00000280CD02868E16AC06A884207D2074903
:1051B0004FF080500860BFF34F8FBFF36F8FF8BD83
:1051C0002000002484020024E406002404ED00E012
:1051D00038B500F0ADFB104C2068C8B90F4800F09E
:1051E00081FB0E48143000F07DFB0C490020E1608B
:1051F00014312161A1F582730090A1F1B402102154
:105200000A2000F00FFE206010B105A100F008FC9C
:10521000BDE8384000F0ACBB600000243808002432
:10522000546D72510000000030B4026C0B46002A2D
:105230000BD0D0E902411144C160A14201D3016801
:10524000C160184630BCFBF79EB930BC704710B542
:10525000044690F8590058B101280CD002280FD00C
:10526000502080F31188BFF34F8FBFF36F8FFEE79D
:10527000206B00F091FB2046BDE8104000F08CBB95
:1052800010BD00000F484FF4705110B5420706D012
:105290000C49C01D20F00700411AC1F570510A4C9D
:1052A000002201440839A4F1140321F00701C4E9E4
:1052B00000020C1A19604A600A60C0E900149C6080
:1052C0005C6010BD180F00248C000024144E4FF0B9
:1052D0008058144CDFF85090A6F29C4712E000BFB3
:1052E00000F026FBF068C568281D00F0CFFAA06822
:1052F000401EA0606068401E606000F039FB2846D8
:10530000FFF7A5FF60680028EAD138680128F9D9BD
:10531000C9F80080BFF34F8FBFF36F8FF2E7000033
:10532000200700242000002404ED00E02DE9F041D6
:105330000D001F460646069C10D022600121C4E9DC
:105340000F65204600F092FD3B462A46314684F820
:105350004C70BDE8F0417320FEF75ABD2460EDE7C4
:105360002DE9F0470D46994691001746DDE909847D
:10537000089EA5228246206BFBF74AF9206B6FF04E
:10538000030101EB8701084420F00707780707D0E5
:10539000502080F31188BFF34F8FBFF36F8FFEE76C
:1053A00065B100202218295C82F83410295C11B103
:1053B000401C1028F6D3002084F84300382E07D371
:1053C000502080F31188BFF34F8FBFF36F8FFEE73C
:1053D000E662201DE66400F090FA04F1180000F087
:1053E0008CFA2461C6F1380064624A465146A061D5
:1053F000384600F033FAB8F1000F206001D0C8F849
:105400000040BDE8F087000030B5114900E01146CA
:105410000A688242FBD34B685C18844203D144681B
:10542000084623444B6043681D18954209D1084C37
:10543000143C2468A24209D052681A4442600A68A7
:1054400012680260814200D0086030BD0460F9E754
:105450008C00002470B50D4D914241604FF0000466
:10546000006106D88169D21A8A4206D2011D2869D4
:1054700007E09A4203D2994201D3012403E0011DBF
:10548000E86800F03DFA204670BD0000600000248E
:1054900010B5044600F04CFAA06B28B15FF0000490
:1054A00000F066FA204610BD0124F9E770B5064603
:1054B0000D480D46C068C068C468201D00F0E6F9BC
:1054C00094F82800410705D52A463146204600F0C9
:1054D000BBF803E000F0FE0084F82800216A2046B3
:1054E000BDE87040084700006000002470B53A4EE7
:1054F00086B067E00098002806DA019ADDE902012B
:105500009047009800285DDB029C606910B1201D67
:1055100000F0BCF904A800F0B9F8054600980A2884
:1055200050D2DFE800F04F0505282B430505282B56
:1055300094F828002A4640F0010084F82800A16968
:105540000198014403462046FFF784FF28B394F8EE
:105550002800410707D501982A46A1690144204641
:1055600000F072F803E000F0FE0084F82800216AE1
:105570002046884726E094F828001FE094F8280089
:1055800040F0010084F828000198A06130B1411971
:105590002B461A462046FFF75DFF13E0502080F3AC
:1055A0001188BFF34F8FBFF36F8FFEE794F8280089
:1055B000810703D4204600F0EFF903E000F0FE007D
:1055C00084F8280030680022694600F0ADFC00280D
:1055D00090D106B070BD000060000024F8B50D4603
:1055E000064600F03DFB684600F050F8044600987F
:1055F00010B100F017FFF8BD1148ADB1016909689D
:10560000D9B100250068311B2A4600F03BFA00F0B2
:1056100009FF0028EFD10B494FF080500860BFF31D
:105620004F8FBFF36F8FF8BDA642EBD800F0FAFEA4
:1056300021463046FFF73AFFF8BD0125E2E70000BA
:105640006000002404ED00E070B516460C460546E7
:1056500004E0A869296A044428468847A8692346C3
:10566000324601192846FFF7F5FE0028F1D170BD3A
:105670000548816B096821B1816BC968096881623D
:1056800070474FF0FF31FAE7200000242DE9F04188
:10569000064600F0B7FD0E4C0546A068854214D2C0
:1056A0004FF0FF3704E0C06839460068FFF7FEFEA0
:1056B000E06801680029F6D12169C4E903100120DE
:1056C00030602846A560BDE8F0810020F8E70000C2
:1056D0006000002408484068401C4FF0500080F3F0
:1056E000118804D0BFF34F8FBFF36F8FFEE7BFF376
:1056F0004F8FBFF36F8FFEE794000024074CE068E4
:10570000016841B1C0680021D0F80000FFF766FFD2
:10571000FFF7ECFEF3E701210020F7E7600000242B
:105720002DE9F041044600F003F994F9455004F1E5
:10573000240609E0606A48B1304600F003FE08B173
:1057400000F0F4F96D1E6DB2002DF3DC4FF0FF3662
:1057500084F8456000F00CF900F0EAF894F9445040
:1057600004F1100709E0206948B1384600F0EAFD6D
:1057700008B100F0DBF96D1E6DB2002DF3DC84F88A
:105780004460BDE8F04100F0F3B800002DE9F041BD
:105790000027044600F064FA2F4E306808B9FFF77E
:1057A00071FDACB314F1090F47D80834600707D076
:1057B00004F00700C0F10800C1438C423DD8044406
:1057C000002C3ADD7068844237D8234814300146F3
:1057D0000D6801E028460D466968A14202D2296899
:1057E0000029F7D131688D4227D007682968016008
:1057F00008376868011B10290FD92819420708D0FB
:10580000502080F31188BFF34F8FBFF36F8FFEE7F7
:1058100013E041606C60FFF7F7FD69687068401A3B
:105820007060B268904200D2B06041F00041002048
:10583000C5E90001F068401CF06000F0F3FD780756
:1058400007D0502080F31188BFF34F8FBFF36F8FC5
:10585000FEE73846BDE8F0817800002470B5041FEB
:10586000094E231F4FF0807521F0010125601C1F98
:105870001960A0F120010B1F266044380A606FF008
:1058800002051D6070BD0000D5560008D0E9013248
:1058900001699A60D0E901235A604A68824201D1C5
:1058A00082684A60002202610868401E0860086839
:1058B0007047000010B5044C8023046004F15C00C4
:1058C0000860136010BD00006008002410B5044C8F
:1058D0004FF48073046004F15C000860136010BD35
:1058E000BC0A00244FF0FF3300F108010022C0E998
:1058F00001130260C16001617047002101617047BE
:1059000030B50B685A1C02D000F1080202E00269AF
:1059100004E02246546825689D42FAD953684B60DA
:1059200099608A60516008610168491C016030BD5E
:10593000502080F31188BFF34F8FBFF36F8F0A4958
:105940004868401C486001280CD10848006810F0E5
:10595000FF0F07D0502080F31188BFF34F8FBFF3A4
:105960006F8FFEE7704700009400002404ED00E014
:105970000849486828B1401E486001D180F3118869
:105980007047502080F31188BFF34F8FBFF36F8FA4
:10599000FEE700009400002470B500282AD0A0F192
:1059A00008046068002807DB502080F31188BFF3EB
:1059B0004F8FBFF36F8FFEE7216839B1502080F31E
:1059C0001188BFF34F8FBFF36F8FFEE720F00040C9
:1059D000606000F045F9084D6068696808446860D7
:1059E0002046FFF711FD2869401C2861BDE8704082
:1059F00000F018BD70BD0000780000244FF0E020DA
:105A0000002101614FF47A7281610723034909681B
:105A1000B1FBF2F1491E4161036170471800002497
:105A200070B50D464FF0000160B1002D27D0144C29
:105A3000002300BF04EBC302566886420AD104EB80
:105A4000C3010FE0502080F31188BFF34F8FBFF3E5
:105A50006F8FFEE719B954F8336006B911465B1C25
:105A6000082BE7D300290AD0C1E90050FEF742FB1A
:105A70002A460146BDE870407120FEF7A1B970BD0D
:105A80004402002470B515460E460446FFF750FF49
:105A900094F944100020491C01D184F8440094F981
:105AA0004510491C01D184F84500FFF761FFA06B48
:105AB00028B904F124002A46314600F055F8204662
:105AC000BDE87040FFF72CBE10B5040018D0114897
:105AD000406B38B1502080F31188BFF34F8FBFF374
